{
	"main.sol": {
		"FundRiser": {
			"abi": [
				{
					"inputs": [
						{
							"internalType": "string",
							"name": "_reqName",
							"type": "string"
						},
						{
							"internalType": "uint256",
							"name": "_target",
							"type": "uint256"
						},
						{
							"internalType": "uint256",
							"name": "_deadline",
							"type": "uint256"
						}
					],
					"stateMutability": "nonpayable",
					"type": "constructor"
				},
				{
					"inputs": [
						{
							"internalType": "address",
							"name": "",
							"type": "address"
						}
					],
					"name": "contributors",
					"outputs": [
						{
							"internalType": "uint256",
							"name": "",
							"type": "uint256"
						}
					],
					"stateMutability": "view",
					"type": "function"
				},
				{
					"inputs": [],
					"name": "deadline",
					"outputs": [
						{
							"internalType": "uint256",
							"name": "",
							"type": "uint256"
						}
					],
					"stateMutability": "view",
					"type": "function"
				},
				{
					"inputs": [],
					"name": "getAmount",
					"outputs": [],
					"stateMutability": "nonpayable",
					"type": "function"
				},
				{
					"inputs": [],
					"name": "getBalance",
					"outputs": [
						{
							"internalType": "uint256",
							"name": "",
							"type": "uint256"
						}
					],
					"stateMutability": "view",
					"type": "function"
				},
				{
					"inputs": [],
					"name": "getRefund",
					"outputs": [],
					"stateMutability": "nonpayable",
					"type": "function"
				},
				{
					"inputs": [],
					"name": "manager",
					"outputs": [
						{
							"internalType": "address",
							"name": "",
							"type": "address"
						}
					],
					"stateMutability": "view",
					"type": "function"
				},
				{
					"inputs": [],
					"name": "minContrib",
					"outputs": [
						{
							"internalType": "uint256",
							"name": "",
							"type": "uint256"
						}
					],
					"stateMutability": "view",
					"type": "function"
				},
				{
					"inputs": [],
					"name": "sendEth",
					"outputs": [],
					"stateMutability": "payable",
					"type": "function"
				},
				{
					"inputs": [],
					"name": "target",
					"outputs": [
						{
							"internalType": "uint256",
							"name": "",
							"type": "uint256"
						}
					],
					"stateMutability": "view",
					"type": "function"
				},
				{
					"inputs": [],
					"name": "totalAmount",
					"outputs": [
						{
							"internalType": "uint256",
							"name": "",
							"type": "uint256"
						}
					],
					"stateMutability": "view",
					"type": "function"
				},
				{
					"inputs": [],
					"name": "totalContributors",
					"outputs": [
						{
							"internalType": "uint256",
							"name": "",
							"type": "uint256"
						}
					],
					"stateMutability": "view",
					"type": "function"
				}
			],
			"devdoc": {
				"kind": "dev",
				"methods": {},
				"version": 1
			},
			"evm": {
				"assembly": "    /* \"main.sol\":60:1776  contract FundRiser{... */\n  mstore(0x40, 0x80)\n    /* \"main.sol\":334:574  constructor(string memory _reqName ,uint _target, uint _deadline) {... */\n  callvalue\n  dup1\n  iszero\n  tag_1\n  jumpi\n  0x00\n  dup1\n  revert\ntag_1:\n  pop\n  mload(0x40)\n  sub(codesize, bytecodeSize)\n  dup1\n  bytecodeSize\n  dup4\n  codecopy\n  dup2\n  dup2\n  add\n  0x40\n  mstore\n  dup2\n  add\n  swap1\n  tag_2\n  swap2\n  swap1\n  tag_3\n  jump\t// in\ntag_2:\n    /* \"main.sol\":421:429  _reqName */\n  dup3\n    /* \"main.sol\":411:418  reqName */\n  0x02\n    /* \"main.sol\":411:429  reqName = _reqName */\n  swap1\n  dup2\n  tag_6\n  swap2\n  swap1\n  tag_7\n  jump\t// in\ntag_6:\n  pop\n    /* \"main.sol\":448:455  _target */\n  dup2\n    /* \"main.sol\":440:446  target */\n  0x04\n    /* \"main.sol\":440:455  target= _target */\n  dup2\n  swap1\n  sstore\n  pop\n    /* \"main.sol\":495:504  _deadline */\n  dup1\n    /* \"main.sol\":477:492  block.timestamp */\n  timestamp\n    /* \"main.sol\":477:504  block.timestamp + _deadline */\n  tag_8\n  swap2\n  swap1\n  tag_9\n  jump\t// in\ntag_8:\n    /* \"main.sol\":466:474  deadline */\n  0x07\n    /* \"main.sol\":466:504  deadline = block.timestamp + _deadline */\n  dup2\n  swap1\n  sstore\n  pop\n    /* \"main.sol\":528:535  100 wei */\n  0x64\n    /* \"main.sol\":515:525  minContrib */\n  0x03\n    /* \"main.sol\":515:535  minContrib = 100 wei */\n  dup2\n  swap1\n  sstore\n  pop\n    /* \"main.sol\":556:566  msg.sender */\n  caller\n    /* \"main.sol\":546:553  manager */\n  0x01\n  0x00\n    /* \"main.sol\":546:566  manager = msg.sender */\n  0x0100\n  exp\n  dup2\n  sload\n  dup2\n  0xffffffffffffffffffffffffffffffffffffffff\n  mul\n  not\n  and\n  swap1\n  dup4\n  0xffffffffffffffffffffffffffffffffffffffff\n  and\n  mul\n  or\n  swap1\n  sstore\n  pop\n    /* \"main.sol\":334:574  constructor(string memory _reqName ,uint _target, uint _deadline) {... */\n  pop\n  pop\n  pop\n    /* \"main.sol\":60:1776  contract FundRiser{... */\n  jump(tag_10)\n    /* \"#utility.yul\":7:82   */\ntag_11:\n    /* \"#utility.yul\":40:46   */\n  0x00\n    /* \"#utility.yul\":73:75   */\n  0x40\n    /* \"#utility.yul\":67:76   */\n  mload\n    /* \"#utility.yul\":57:76   */\n  swap1\n  pop\n    /* \"#utility.yul\":7:82   */\n  swap1\n  jump\t// out\n    /* \"#utility.yul\":88:205   */\ntag_12:\n    /* \"#utility.yul\":197:198   */\n  0x00\n    /* \"#utility.yul\":194:195   */\n  dup1\n    /* \"#utility.yul\":187:199   */\n  revert\n    /* \"#utility.yul\":211:328   */\ntag_13:\n    /* \"#utility.yul\":320:321   */\n  0x00\n    /* \"#utility.yul\":317:318   */\n  dup1\n    /* \"#utility.yul\":310:322   */\n  revert\n    /* \"#utility.yul\":334:451   */\ntag_14:\n    /* \"#utility.yul\":443:444   */\n  0x00\n    /* \"#utility.yul\":440:441   */\n  dup1\n    /* \"#utility.yul\":433:445   */\n  revert\n    /* \"#utility.yul\":457:574   */\ntag_15:\n    /* \"#utility.yul\":566:567   */\n  0x00\n    /* \"#utility.yul\":563:564   */\n  dup1\n    /* \"#utility.yul\":556:568   */\n  revert\n    /* \"#utility.yul\":580:682   */\ntag_16:\n    /* \"#utility.yul\":621:627   */\n  0x00\n    /* \"#utility.yul\":672:674   */\n  0x1f\n    /* \"#utility.yul\":668:675   */\n  not\n    /* \"#utility.yul\":663:665   */\n  0x1f\n    /* \"#utility.yul\":656:661   */\n  dup4\n    /* \"#utility.yul\":652:666   */\n  add\n    /* \"#utility.yul\":648:676   */\n  and\n    /* \"#utility.yul\":638:676   */\n  swap1\n  pop\n    /* \"#utility.yul\":580:682   */\n  swap2\n  swap1\n  pop\n  jump\t// out\n    /* \"#utility.yul\":688:868   */\ntag_17:\n    /* \"#utility.yul\":736:813   */\n  0x4e487b7100000000000000000000000000000000000000000000000000000000\n    /* \"#utility.yul\":733:734   */\n  0x00\n    /* \"#utility.yul\":726:814   */\n  mstore\n    /* \"#utility.yul\":833:837   */\n  0x41\n    /* \"#utility.yul\":830:831   */\n  0x04\n    /* \"#utility.yul\":823:838   */\n  mstore\n    /* \"#utility.yul\":857:861   */\n  0x24\n    /* \"#utility.yul\":854:855   */\n  0x00\n    /* \"#utility.yul\":847:862   */\n  revert\n    /* \"#utility.yul\":874:1155   */\ntag_18:\n    /* \"#utility.yul\":957:984   */\n  tag_55\n    /* \"#utility.yul\":979:983   */\n  dup3\n    /* \"#utility.yul\":957:984   */\n  tag_16\n  jump\t// in\ntag_55:\n    /* \"#utility.yul\":949:955   */\n  dup2\n    /* \"#utility.yul\":945:985   */\n  add\n    /* \"#utility.yul\":1087:1093   */\n  dup2\n    /* \"#utility.yul\":1075:1085   */\n  dup2\n    /* \"#utility.yul\":1072:1094   */\n  lt\n    /* \"#utility.yul\":1051:1069   */\n  0xffffffffffffffff\n    /* \"#utility.yul\":1039:1049   */\n  dup3\n    /* \"#utility.yul\":1036:1070   */\n  gt\n    /* \"#utility.yul\":1033:1095   */\n  or\n    /* \"#utility.yul\":1030:1118   */\n  iszero\n  tag_56\n  jumpi\n    /* \"#utility.yul\":1098:1116   */\n  tag_57\n  tag_17\n  jump\t// in\ntag_57:\n    /* \"#utility.yul\":1030:1118   */\ntag_56:\n    /* \"#utility.yul\":1138:1148   */\n  dup1\n    /* \"#utility.yul\":1134:1136   */\n  0x40\n    /* \"#utility.yul\":1127:1149   */\n  mstore\n    /* \"#utility.yul\":917:1155   */\n  pop\n    /* \"#utility.yul\":874:1155   */\n  pop\n  pop\n  jump\t// out\n    /* \"#utility.yul\":1161:1290   */\ntag_19:\n    /* \"#utility.yul\":1195:1201   */\n  0x00\n    /* \"#utility.yul\":1222:1242   */\n  tag_59\n  tag_11\n  jump\t// in\ntag_59:\n    /* \"#utility.yul\":1212:1242   */\n  swap1\n  pop\n    /* \"#utility.yul\":1251:1284   */\n  tag_60\n    /* \"#utility.yul\":1279:1283   */\n  dup3\n    /* \"#utility.yul\":1271:1277   */\n  dup3\n    /* \"#utility.yul\":1251:1284   */\n  tag_18\n  jump\t// in\ntag_60:\n    /* \"#utility.yul\":1161:1290   */\n  swap2\n  swap1\n  pop\n  jump\t// out\n    /* \"#utility.yul\":1296:1604   */\ntag_20:\n    /* \"#utility.yul\":1358:1362   */\n  0x00\n    /* \"#utility.yul\":1448:1466   */\n  0xffffffffffffffff\n    /* \"#utility.yul\":1440:1446   */\n  dup3\n    /* \"#utility.yul\":1437:1467   */\n  gt\n    /* \"#utility.yul\":1434:1490   */\n  iszero\n  tag_62\n  jumpi\n    /* \"#utility.yul\":1470:1488   */\n  tag_63\n  tag_17\n  jump\t// in\ntag_63:\n    /* \"#utility.yul\":1434:1490   */\ntag_62:\n    /* \"#utility.yul\":1508:1537   */\n  tag_64\n    /* \"#utility.yul\":1530:1536   */\n  dup3\n    /* \"#utility.yul\":1508:1537   */\n  tag_16\n  jump\t// in\ntag_64:\n    /* \"#utility.yul\":1500:1537   */\n  swap1\n  pop\n    /* \"#utility.yul\":1592:1596   */\n  0x20\n    /* \"#utility.yul\":1586:1590   */\n  dup2\n    /* \"#utility.yul\":1582:1597   */\n  add\n    /* \"#utility.yul\":1574:1597   */\n  swap1\n  pop\n    /* \"#utility.yul\":1296:1604   */\n  swap2\n  swap1\n  pop\n  jump\t// out\n    /* \"#utility.yul\":1610:1856   */\ntag_21:\n    /* \"#utility.yul\":1691:1692   */\n  0x00\n    /* \"#utility.yul\":1701:1814   */\ntag_66:\n    /* \"#utility.yul\":1715:1721   */\n  dup4\n    /* \"#utility.yul\":1712:1713   */\n  dup2\n    /* \"#utility.yul\":1709:1722   */\n  lt\n    /* \"#utility.yul\":1701:1814   */\n  iszero\n  tag_68\n  jumpi\n    /* \"#utility.yul\":1800:1801   */\n  dup1\n    /* \"#utility.yul\":1795:1798   */\n  dup3\n    /* \"#utility.yul\":1791:1802   */\n  add\n    /* \"#utility.yul\":1785:1803   */\n  mload\n    /* \"#utility.yul\":1781:1782   */\n  dup2\n    /* \"#utility.yul\":1776:1779   */\n  dup5\n    /* \"#utility.yul\":1772:1783   */\n  add\n    /* \"#utility.yul\":1765:1804   */\n  mstore\n    /* \"#utility.yul\":1737:1739   */\n  0x20\n    /* \"#utility.yul\":1734:1735   */\n  dup2\n    /* \"#utility.yul\":1730:1740   */\n  add\n    /* \"#utility.yul\":1725:1740   */\n  swap1\n  pop\n    /* \"#utility.yul\":1701:1814   */\n  jump(tag_66)\ntag_68:\n    /* \"#utility.yul\":1848:1849   */\n  0x00\n    /* \"#utility.yul\":1839:1845   */\n  dup5\n    /* \"#utility.yul\":1834:1837   */\n  dup5\n    /* \"#utility.yul\":1830:1846   */\n  add\n    /* \"#utility.yul\":1823:1850   */\n  mstore\n    /* \"#utility.yul\":1672:1856   */\n  pop\n    /* \"#utility.yul\":1610:1856   */\n  pop\n  pop\n  pop\n  jump\t// out\n    /* \"#utility.yul\":1862:2296   */\ntag_22:\n    /* \"#utility.yul\":1951:1956   */\n  0x00\n    /* \"#utility.yul\":1976:2042   */\n  tag_70\n    /* \"#utility.yul\":1992:2041   */\n  tag_71\n    /* \"#utility.yul\":2034:2040   */\n  dup5\n    /* \"#utility.yul\":1992:2041   */\n  tag_20\n  jump\t// in\ntag_71:\n    /* \"#utility.yul\":1976:2042   */\n  tag_19\n  jump\t// in\ntag_70:\n    /* \"#utility.yul\":1967:2042   */\n  swap1\n  pop\n    /* \"#utility.yul\":2065:2071   */\n  dup3\n    /* \"#utility.yul\":2058:2063   */\n  dup2\n    /* \"#utility.yul\":2051:2072   */\n  mstore\n    /* \"#utility.yul\":2103:2107   */\n  0x20\n    /* \"#utility.yul\":2096:2101   */\n  dup2\n    /* \"#utility.yul\":2092:2108   */\n  add\n    /* \"#utility.yul\":2141:2144   */\n  dup5\n    /* \"#utility.yul\":2132:2138   */\n  dup5\n    /* \"#utility.yul\":2127:2130   */\n  dup5\n    /* \"#utility.yul\":2123:2139   */\n  add\n    /* \"#utility.yul\":2120:2145   */\n  gt\n    /* \"#utility.yul\":2117:2229   */\n  iszero\n  tag_72\n  jumpi\n    /* \"#utility.yul\":2148:2227   */\n  tag_73\n  tag_15\n  jump\t// in\ntag_73:\n    /* \"#utility.yul\":2117:2229   */\ntag_72:\n    /* \"#utility.yul\":2238:2290   */\n  tag_74\n    /* \"#utility.yul\":2283:2289   */\n  dup5\n    /* \"#utility.yul\":2278:2281   */\n  dup3\n    /* \"#utility.yul\":2273:2276   */\n  dup6\n    /* \"#utility.yul\":2238:2290   */\n  tag_21\n  jump\t// in\ntag_74:\n    /* \"#utility.yul\":1957:2296   */\n  pop\n    /* \"#utility.yul\":1862:2296   */\n  swap4\n  swap3\n  pop\n  pop\n  pop\n  jump\t// out\n    /* \"#utility.yul\":2316:2671   */\ntag_23:\n    /* \"#utility.yul\":2383:2388   */\n  0x00\n    /* \"#utility.yul\":2432:2435   */\n  dup3\n    /* \"#utility.yul\":2425:2429   */\n  0x1f\n    /* \"#utility.yul\":2417:2423   */\n  dup4\n    /* \"#utility.yul\":2413:2430   */\n  add\n    /* \"#utility.yul\":2409:2436   */\n  slt\n    /* \"#utility.yul\":2399:2521   */\n  tag_76\n  jumpi\n    /* \"#utility.yul\":2440:2519   */\n  tag_77\n  tag_14\n  jump\t// in\ntag_77:\n    /* \"#utility.yul\":2399:2521   */\ntag_76:\n    /* \"#utility.yul\":2550:2556   */\n  dup2\n    /* \"#utility.yul\":2544:2557   */\n  mload\n    /* \"#utility.yul\":2575:2665   */\n  tag_78\n    /* \"#utility.yul\":2661:2664   */\n  dup5\n    /* \"#utility.yul\":2653:2659   */\n  dup3\n    /* \"#utility.yul\":2646:2650   */\n  0x20\n    /* \"#utility.yul\":2638:2644   */\n  dup7\n    /* \"#utility.yul\":2634:2651   */\n  add\n    /* \"#utility.yul\":2575:2665   */\n  tag_22\n  jump\t// in\ntag_78:\n    /* \"#utility.yul\":2566:2665   */\n  swap2\n  pop\n    /* \"#utility.yul\":2389:2671   */\n  pop\n    /* \"#utility.yul\":2316:2671   */\n  swap3\n  swap2\n  pop\n  pop\n  jump\t// out\n    /* \"#utility.yul\":2677:2754   */\ntag_24:\n    /* \"#utility.yul\":2714:2721   */\n  0x00\n    /* \"#utility.yul\":2743:2748   */\n  dup2\n    /* \"#utility.yul\":2732:2748   */\n  swap1\n  pop\n    /* \"#utility.yul\":2677:2754   */\n  swap2\n  swap1\n  pop\n  jump\t// out\n    /* \"#utility.yul\":2760:2882   */\ntag_25:\n    /* \"#utility.yul\":2833:2857   */\n  tag_81\n    /* \"#utility.yul\":2851:2856   */\n  dup2\n    /* \"#utility.yul\":2833:2857   */\n  tag_24\n  jump\t// in\ntag_81:\n    /* \"#utility.yul\":2826:2831   */\n  dup2\n    /* \"#utility.yul\":2823:2858   */\n  eq\n    /* \"#utility.yul\":2813:2876   */\n  tag_82\n  jumpi\n    /* \"#utility.yul\":2872:2873   */\n  0x00\n    /* \"#utility.yul\":2869:2870   */\n  dup1\n    /* \"#utility.yul\":2862:2874   */\n  revert\n    /* \"#utility.yul\":2813:2876   */\ntag_82:\n    /* \"#utility.yul\":2760:2882   */\n  pop\n  jump\t// out\n    /* \"#utility.yul\":2888:3031   */\ntag_26:\n    /* \"#utility.yul\":2945:2950   */\n  0x00\n    /* \"#utility.yul\":2976:2982   */\n  dup2\n    /* \"#utility.yul\":2970:2983   */\n  mload\n    /* \"#utility.yul\":2961:2983   */\n  swap1\n  pop\n    /* \"#utility.yul\":2992:3025   */\n  tag_84\n    /* \"#utility.yul\":3019:3024   */\n  dup2\n    /* \"#utility.yul\":2992:3025   */\n  tag_25\n  jump\t// in\ntag_84:\n    /* \"#utility.yul\":2888:3031   */\n  swap3\n  swap2\n  pop\n  pop\n  jump\t// out\n    /* \"#utility.yul\":3037:3873   */\ntag_3:\n    /* \"#utility.yul\":3135:3141   */\n  0x00\n    /* \"#utility.yul\":3143:3149   */\n  dup1\n    /* \"#utility.yul\":3151:3157   */\n  0x00\n    /* \"#utility.yul\":3200:3202   */\n  0x60\n    /* \"#utility.yul\":3188:3197   */\n  dup5\n    /* \"#utility.yul\":3179:3186   */\n  dup7\n    /* \"#utility.yul\":3175:3198   */\n  sub\n    /* \"#utility.yul\":3171:3203   */\n  slt\n    /* \"#utility.yul\":3168:3287   */\n  iszero\n  tag_86\n  jumpi\n    /* \"#utility.yul\":3206:3285   */\n  tag_87\n  tag_12\n  jump\t// in\ntag_87:\n    /* \"#utility.yul\":3168:3287   */\ntag_86:\n    /* \"#utility.yul\":3347:3348   */\n  0x00\n    /* \"#utility.yul\":3336:3345   */\n  dup5\n    /* \"#utility.yul\":3332:3349   */\n  add\n    /* \"#utility.yul\":3326:3350   */\n  mload\n    /* \"#utility.yul\":3377:3395   */\n  0xffffffffffffffff\n    /* \"#utility.yul\":3369:3375   */\n  dup2\n    /* \"#utility.yul\":3366:3396   */\n  gt\n    /* \"#utility.yul\":3363:3480   */\n  iszero\n  tag_88\n  jumpi\n    /* \"#utility.yul\":3399:3478   */\n  tag_89\n  tag_13\n  jump\t// in\ntag_89:\n    /* \"#utility.yul\":3363:3480   */\ntag_88:\n    /* \"#utility.yul\":3504:3578   */\n  tag_90\n    /* \"#utility.yul\":3570:3577   */\n  dup7\n    /* \"#utility.yul\":3561:3567   */\n  dup3\n    /* \"#utility.yul\":3550:3559   */\n  dup8\n    /* \"#utility.yul\":3546:3568   */\n  add\n    /* \"#utility.yul\":3504:3578   */\n  tag_23\n  jump\t// in\ntag_90:\n    /* \"#utility.yul\":3494:3578   */\n  swap4\n  pop\n    /* \"#utility.yul\":3297:3588   */\n  pop\n    /* \"#utility.yul\":3627:3629   */\n  0x20\n    /* \"#utility.yul\":3653:3717   */\n  tag_91\n    /* \"#utility.yul\":3709:3716   */\n  dup7\n    /* \"#utility.yul\":3700:3706   */\n  dup3\n    /* \"#utility.yul\":3689:3698   */\n  dup8\n    /* \"#utility.yul\":3685:3707   */\n  add\n    /* \"#utility.yul\":3653:3717   */\n  tag_26\n  jump\t// in\ntag_91:\n    /* \"#utility.yul\":3643:3717   */\n  swap3\n  pop\n    /* \"#utility.yul\":3598:3727   */\n  pop\n    /* \"#utility.yul\":3766:3768   */\n  0x40\n    /* \"#utility.yul\":3792:3856   */\n  tag_92\n    /* \"#utility.yul\":3848:3855   */\n  dup7\n    /* \"#utility.yul\":3839:3845   */\n  dup3\n    /* \"#utility.yul\":3828:3837   */\n  dup8\n    /* \"#utility.yul\":3824:3846   */\n  add\n    /* \"#utility.yul\":3792:3856   */\n  tag_26\n  jump\t// in\ntag_92:\n    /* \"#utility.yul\":3782:3856   */\n  swap2\n  pop\n    /* \"#utility.yul\":3737:3866   */\n  pop\n    /* \"#utility.yul\":3037:3873   */\n  swap3\n  pop\n  swap3\n  pop\n  swap3\n  jump\t// out\n    /* \"#utility.yul\":3879:3978   */\ntag_27:\n    /* \"#utility.yul\":3931:3937   */\n  0x00\n    /* \"#utility.yul\":3965:3970   */\n  dup2\n    /* \"#utility.yul\":3959:3971   */\n  mload\n    /* \"#utility.yul\":3949:3971   */\n  swap1\n  pop\n    /* \"#utility.yul\":3879:3978   */\n  swap2\n  swap1\n  pop\n  jump\t// out\n    /* \"#utility.yul\":3984:4164   */\ntag_28:\n    /* \"#utility.yul\":4032:4109   */\n  0x4e487b7100000000000000000000000000000000000000000000000000000000\n    /* \"#utility.yul\":4029:4030   */\n  0x00\n    /* \"#utility.yul\":4022:4110   */\n  mstore\n    /* \"#utility.yul\":4129:4133   */\n  0x22\n    /* \"#utility.yul\":4126:4127   */\n  0x04\n    /* \"#utility.yul\":4119:4134   */\n  mstore\n    /* \"#utility.yul\":4153:4157   */\n  0x24\n    /* \"#utility.yul\":4150:4151   */\n  0x00\n    /* \"#utility.yul\":4143:4158   */\n  revert\n    /* \"#utility.yul\":4170:4490   */\ntag_29:\n    /* \"#utility.yul\":4214:4220   */\n  0x00\n    /* \"#utility.yul\":4251:4252   */\n  0x02\n    /* \"#utility.yul\":4245:4249   */\n  dup3\n    /* \"#utility.yul\":4241:4253   */\n  div\n    /* \"#utility.yul\":4231:4253   */\n  swap1\n  pop\n    /* \"#utility.yul\":4298:4299   */\n  0x01\n    /* \"#utility.yul\":4292:4296   */\n  dup3\n    /* \"#utility.yul\":4288:4300   */\n  and\n    /* \"#utility.yul\":4319:4337   */\n  dup1\n    /* \"#utility.yul\":4309:4390   */\n  tag_96\n  jumpi\n    /* \"#utility.yul\":4375:4379   */\n  0x7f\n    /* \"#utility.yul\":4367:4373   */\n  dup3\n    /* \"#utility.yul\":4363:4380   */\n  and\n    /* \"#utility.yul\":4353:4380   */\n  swap2\n  pop\n    /* \"#utility.yul\":4309:4390   */\ntag_96:\n    /* \"#utility.yul\":4437:4439   */\n  0x20\n    /* \"#utility.yul\":4429:4435   */\n  dup3\n    /* \"#utility.yul\":4426:4440   */\n  lt\n    /* \"#utility.yul\":4406:4424   */\n  dup2\n    /* \"#utility.yul\":4403:4441   */\n  sub\n    /* \"#utility.yul\":4400:4484   */\n  tag_97\n  jumpi\n    /* \"#utility.yul\":4456:4474   */\n  tag_98\n  tag_28\n  jump\t// in\ntag_98:\n    /* \"#utility.yul\":4400:4484   */\ntag_97:\n    /* \"#utility.yul\":4221:4490   */\n  pop\n    /* \"#utility.yul\":4170:4490   */\n  swap2\n  swap1\n  pop\n  jump\t// out\n    /* \"#utility.yul\":4496:4637   */\ntag_30:\n    /* \"#utility.yul\":4545:4549   */\n  0x00\n    /* \"#utility.yul\":4568:4571   */\n  dup2\n    /* \"#utility.yul\":4560:4571   */\n  swap1\n  pop\n    /* \"#utility.yul\":4591:4594   */\n  dup2\n    /* \"#utility.yul\":4588:4589   */\n  0x00\n    /* \"#utility.yul\":4581:4595   */\n  mstore\n    /* \"#utility.yul\":4625:4629   */\n  0x20\n    /* \"#utility.yul\":4622:4623   */\n  0x00\n    /* \"#utility.yul\":4612:4630   */\n  keccak256\n    /* \"#utility.yul\":4604:4630   */\n  swap1\n  pop\n    /* \"#utility.yul\":4496:4637   */\n  swap2\n  swap1\n  pop\n  jump\t// out\n    /* \"#utility.yul\":4643:4736   */\ntag_31:\n    /* \"#utility.yul\":4680:4686   */\n  0x00\n    /* \"#utility.yul\":4727:4729   */\n  0x20\n    /* \"#utility.yul\":4722:4724   */\n  0x1f\n    /* \"#utility.yul\":4715:4720   */\n  dup4\n    /* \"#utility.yul\":4711:4725   */\n  add\n    /* \"#utility.yul\":4707:4730   */\n  div\n    /* \"#utility.yul\":4697:4730   */\n  swap1\n  pop\n    /* \"#utility.yul\":4643:4736   */\n  swap2\n  swap1\n  pop\n  jump\t// out\n    /* \"#utility.yul\":4742:4849   */\ntag_32:\n    /* \"#utility.yul\":4786:4794   */\n  0x00\n    /* \"#utility.yul\":4836:4841   */\n  dup3\n    /* \"#utility.yul\":4830:4834   */\n  dup3\n    /* \"#utility.yul\":4826:4842   */\n  shl\n    /* \"#utility.yul\":4805:4842   */\n  swap1\n  pop\n    /* \"#utility.yul\":4742:4849   */\n  swap3\n  swap2\n  pop\n  pop\n  jump\t// out\n    /* \"#utility.yul\":4855:5248   */\ntag_33:\n    /* \"#utility.yul\":4924:4930   */\n  0x00\n    /* \"#utility.yul\":4974:4975   */\n  0x08\n    /* \"#utility.yul\":4962:4972   */\n  dup4\n    /* \"#utility.yul\":4958:4976   */\n  mul\n    /* \"#utility.yul\":4997:5094   */\n  tag_103\n    /* \"#utility.yul\":5027:5093   */\n  0xffffffffffffffffffffffffffffffffffffffffffffffffffffffffffffffff\n    /* \"#utility.yul\":5016:5025   */\n  dup3\n    /* \"#utility.yul\":4997:5094   */\n  tag_32\n  jump\t// in\ntag_103:\n    /* \"#utility.yul\":5115:5154   */\n  tag_104\n    /* \"#utility.yul\":5145:5153   */\n  dup7\n    /* \"#utility.yul\":5134:5143   */\n  dup4\n    /* \"#utility.yul\":5115:5154   */\n  tag_32\n  jump\t// in\ntag_104:\n    /* \"#utility.yul\":5103:5154   */\n  swap6\n  pop\n    /* \"#utility.yul\":5187:5191   */\n  dup1\n    /* \"#utility.yul\":5183:5192   */\n  not\n    /* \"#utility.yul\":5176:5181   */\n  dup5\n    /* \"#utility.yul\":5172:5193   */\n  and\n    /* \"#utility.yul\":5163:5193   */\n  swap4\n  pop\n    /* \"#utility.yul\":5236:5240   */\n  dup1\n    /* \"#utility.yul\":5226:5234   */\n  dup7\n    /* \"#utility.yul\":5222:5241   */\n  and\n    /* \"#utility.yul\":5215:5220   */\n  dup5\n    /* \"#utility.yul\":5212:5242   */\n  or\n    /* \"#utility.yul\":5202:5242   */\n  swap3\n  pop\n    /* \"#utility.yul\":4931:5248   */\n  pop\n  pop\n    /* \"#utility.yul\":4855:5248   */\n  swap4\n  swap3\n  pop\n  pop\n  pop\n  jump\t// out\n    /* \"#utility.yul\":5254:5314   */\ntag_34:\n    /* \"#utility.yul\":5282:5285   */\n  0x00\n    /* \"#utility.yul\":5303:5308   */\n  dup2\n    /* \"#utility.yul\":5296:5308   */\n  swap1\n  pop\n    /* \"#utility.yul\":5254:5314   */\n  swap2\n  swap1\n  pop\n  jump\t// out\n    /* \"#utility.yul\":5320:5462   */\ntag_35:\n    /* \"#utility.yul\":5370:5379   */\n  0x00\n    /* \"#utility.yul\":5403:5456   */\n  tag_107\n    /* \"#utility.yul\":5421:5455   */\n  tag_108\n    /* \"#utility.yul\":5430:5454   */\n  tag_109\n    /* \"#utility.yul\":5448:5453   */\n  dup5\n    /* \"#utility.yul\":5430:5454   */\n  tag_24\n  jump\t// in\ntag_109:\n    /* \"#utility.yul\":5421:5455   */\n  tag_34\n  jump\t// in\ntag_108:\n    /* \"#utility.yul\":5403:5456   */\n  tag_24\n  jump\t// in\ntag_107:\n    /* \"#utility.yul\":5390:5456   */\n  swap1\n  pop\n    /* \"#utility.yul\":5320:5462   */\n  swap2\n  swap1\n  pop\n  jump\t// out\n    /* \"#utility.yul\":5468:5543   */\ntag_36:\n    /* \"#utility.yul\":5511:5514   */\n  0x00\n    /* \"#utility.yul\":5532:5537   */\n  dup2\n    /* \"#utility.yul\":5525:5537   */\n  swap1\n  pop\n    /* \"#utility.yul\":5468:5543   */\n  swap2\n  swap1\n  pop\n  jump\t// out\n    /* \"#utility.yul\":5549:5818   */\ntag_37:\n    /* \"#utility.yul\":5659:5698   */\n  tag_112\n    /* \"#utility.yul\":5690:5697   */\n  dup4\n    /* \"#utility.yul\":5659:5698   */\n  tag_35\n  jump\t// in\ntag_112:\n    /* \"#utility.yul\":5720:5811   */\n  tag_113\n    /* \"#utility.yul\":5769:5810   */\n  tag_114\n    /* \"#utility.yul\":5793:5809   */\n  dup3\n    /* \"#utility.yul\":5769:5810   */\n  tag_36\n  jump\t// in\ntag_114:\n    /* \"#utility.yul\":5761:5767   */\n  dup5\n    /* \"#utility.yul\":5754:5758   */\n  dup5\n    /* \"#utility.yul\":5748:5759   */\n  sload\n    /* \"#utility.yul\":5720:5811   */\n  tag_33\n  jump\t// in\ntag_113:\n    /* \"#utility.yul\":5714:5718   */\n  dup3\n    /* \"#utility.yul\":5707:5812   */\n  sstore\n    /* \"#utility.yul\":5625:5818   */\n  pop\n    /* \"#utility.yul\":5549:5818   */\n  pop\n  pop\n  pop\n  jump\t// out\n    /* \"#utility.yul\":5824:5897   */\ntag_38:\n    /* \"#utility.yul\":5869:5872   */\n  0x00\n    /* \"#utility.yul\":5824:5897   */\n  swap1\n  jump\t// out\n    /* \"#utility.yul\":5903:6092   */\ntag_39:\n    /* \"#utility.yul\":5980:6012   */\n  tag_117\n  tag_38\n  jump\t// in\ntag_117:\n    /* \"#utility.yul\":6021:6086   */\n  tag_118\n    /* \"#utility.yul\":6079:6085   */\n  dup2\n    /* \"#utility.yul\":6071:6077   */\n  dup5\n    /* \"#utility.yul\":6065:6069   */\n  dup5\n    /* \"#utility.yul\":6021:6086   */\n  tag_37\n  jump\t// in\ntag_118:\n    /* \"#utility.yul\":5956:6092   */\n  pop\n    /* \"#utility.yul\":5903:6092   */\n  pop\n  pop\n  jump\t// out\n    /* \"#utility.yul\":6098:6284   */\ntag_40:\n    /* \"#utility.yul\":6158:6278   */\ntag_120:\n    /* \"#utility.yul\":6175:6178   */\n  dup2\n    /* \"#utility.yul\":6168:6173   */\n  dup2\n    /* \"#utility.yul\":6165:6179   */\n  lt\n    /* \"#utility.yul\":6158:6278   */\n  iszero\n  tag_122\n  jumpi\n    /* \"#utility.yul\":6229:6268   */\n  tag_123\n    /* \"#utility.yul\":6266:6267   */\n  0x00\n    /* \"#utility.yul\":6259:6264   */\n  dup3\n    /* \"#utility.yul\":6229:6268   */\n  tag_39\n  jump\t// in\ntag_123:\n    /* \"#utility.yul\":6202:6203   */\n  0x01\n    /* \"#utility.yul\":6195:6200   */\n  dup2\n    /* \"#utility.yul\":6191:6204   */\n  add\n    /* \"#utility.yul\":6182:6204   */\n  swap1\n  pop\n    /* \"#utility.yul\":6158:6278   */\n  jump(tag_120)\ntag_122:\n    /* \"#utility.yul\":6098:6284   */\n  pop\n  pop\n  jump\t// out\n    /* \"#utility.yul\":6290:6833   */\ntag_41:\n    /* \"#utility.yul\":6391:6393   */\n  0x1f\n    /* \"#utility.yul\":6386:6389   */\n  dup3\n    /* \"#utility.yul\":6383:6394   */\n  gt\n    /* \"#utility.yul\":6380:6826   */\n  iszero\n  tag_125\n  jumpi\n    /* \"#utility.yul\":6425:6463   */\n  tag_126\n    /* \"#utility.yul\":6457:6462   */\n  dup2\n    /* \"#utility.yul\":6425:6463   */\n  tag_30\n  jump\t// in\ntag_126:\n    /* \"#utility.yul\":6509:6538   */\n  tag_127\n    /* \"#utility.yul\":6527:6537   */\n  dup5\n    /* \"#utility.yul\":6509:6538   */\n  tag_31\n  jump\t// in\ntag_127:\n    /* \"#utility.yul\":6499:6507   */\n  dup2\n    /* \"#utility.yul\":6495:6539   */\n  add\n    /* \"#utility.yul\":6692:6694   */\n  0x20\n    /* \"#utility.yul\":6680:6690   */\n  dup6\n    /* \"#utility.yul\":6677:6695   */\n  lt\n    /* \"#utility.yul\":6674:6723   */\n  iszero\n  tag_128\n  jumpi\n    /* \"#utility.yul\":6713:6721   */\n  dup2\n    /* \"#utility.yul\":6698:6721   */\n  swap1\n  pop\n    /* \"#utility.yul\":6674:6723   */\ntag_128:\n    /* \"#utility.yul\":6736:6816   */\n  tag_129\n    /* \"#utility.yul\":6792:6814   */\n  tag_130\n    /* \"#utility.yul\":6810:6813   */\n  dup6\n    /* \"#utility.yul\":6792:6814   */\n  tag_31\n  jump\t// in\ntag_130:\n    /* \"#utility.yul\":6782:6790   */\n  dup4\n    /* \"#utility.yul\":6778:6815   */\n  add\n    /* \"#utility.yul\":6765:6776   */\n  dup3\n    /* \"#utility.yul\":6736:6816   */\n  tag_40\n  jump\t// in\ntag_129:\n    /* \"#utility.yul\":6395:6826   */\n  pop\n  pop\n    /* \"#utility.yul\":6380:6826   */\ntag_125:\n    /* \"#utility.yul\":6290:6833   */\n  pop\n  pop\n  pop\n  jump\t// out\n    /* \"#utility.yul\":6839:6956   */\ntag_42:\n    /* \"#utility.yul\":6893:6901   */\n  0x00\n    /* \"#utility.yul\":6943:6948   */\n  dup3\n    /* \"#utility.yul\":6937:6941   */\n  dup3\n    /* \"#utility.yul\":6933:6949   */\n  shr\n    /* \"#utility.yul\":6912:6949   */\n  swap1\n  pop\n    /* \"#utility.yul\":6839:6956   */\n  swap3\n  swap2\n  pop\n  pop\n  jump\t// out\n    /* \"#utility.yul\":6962:7131   */\ntag_43:\n    /* \"#utility.yul\":7006:7012   */\n  0x00\n    /* \"#utility.yul\":7039:7090   */\n  tag_133\n    /* \"#utility.yul\":7087:7088   */\n  0x00\n    /* \"#utility.yul\":7083:7089   */\n  not\n    /* \"#utility.yul\":7075:7080   */\n  dup5\n    /* \"#utility.yul\":7072:7073   */\n  0x08\n    /* \"#utility.yul\":7068:7081   */\n  mul\n    /* \"#utility.yul\":7039:7090   */\n  tag_42\n  jump\t// in\ntag_133:\n    /* \"#utility.yul\":7035:7091   */\n  not\n    /* \"#utility.yul\":7120:7124   */\n  dup1\n    /* \"#utility.yul\":7114:7118   */\n  dup4\n    /* \"#utility.yul\":7110:7125   */\n  and\n    /* \"#utility.yul\":7100:7125   */\n  swap2\n  pop\n    /* \"#utility.yul\":7013:7131   */\n  pop\n    /* \"#utility.yul\":6962:7131   */\n  swap3\n  swap2\n  pop\n  pop\n  jump\t// out\n    /* \"#utility.yul\":7136:7431   */\ntag_44:\n    /* \"#utility.yul\":7212:7216   */\n  0x00\n    /* \"#utility.yul\":7358:7387   */\n  tag_135\n    /* \"#utility.yul\":7383:7386   */\n  dup4\n    /* \"#utility.yul\":7377:7381   */\n  dup4\n    /* \"#utility.yul\":7358:7387   */\n  tag_43\n  jump\t// in\ntag_135:\n    /* \"#utility.yul\":7350:7387   */\n  swap2\n  pop\n    /* \"#utility.yul\":7420:7423   */\n  dup3\n    /* \"#utility.yul\":7417:7418   */\n  0x02\n    /* \"#utility.yul\":7413:7424   */\n  mul\n    /* \"#utility.yul\":7407:7411   */\n  dup3\n    /* \"#utility.yul\":7404:7425   */\n  or\n    /* \"#utility.yul\":7396:7425   */\n  swap1\n  pop\n    /* \"#utility.yul\":7136:7431   */\n  swap3\n  swap2\n  pop\n  pop\n  jump\t// out\n    /* \"#utility.yul\":7436:8831   */\ntag_7:\n    /* \"#utility.yul\":7553:7590   */\n  tag_137\n    /* \"#utility.yul\":7586:7589   */\n  dup3\n    /* \"#utility.yul\":7553:7590   */\n  tag_27\n  jump\t// in\ntag_137:\n    /* \"#utility.yul\":7655:7673   */\n  0xffffffffffffffff\n    /* \"#utility.yul\":7647:7653   */\n  dup2\n    /* \"#utility.yul\":7644:7674   */\n  gt\n    /* \"#utility.yul\":7641:7697   */\n  iszero\n  tag_138\n  jumpi\n    /* \"#utility.yul\":7677:7695   */\n  tag_139\n  tag_17\n  jump\t// in\ntag_139:\n    /* \"#utility.yul\":7641:7697   */\ntag_138:\n    /* \"#utility.yul\":7721:7759   */\n  tag_140\n    /* \"#utility.yul\":7753:7757   */\n  dup3\n    /* \"#utility.yul\":7747:7758   */\n  sload\n    /* \"#utility.yul\":7721:7759   */\n  tag_29\n  jump\t// in\ntag_140:\n    /* \"#utility.yul\":7806:7873   */\n  tag_141\n    /* \"#utility.yul\":7866:7872   */\n  dup3\n    /* \"#utility.yul\":7858:7864   */\n  dup3\n    /* \"#utility.yul\":7852:7856   */\n  dup6\n    /* \"#utility.yul\":7806:7873   */\n  tag_41\n  jump\t// in\ntag_141:\n    /* \"#utility.yul\":7900:7901   */\n  0x00\n    /* \"#utility.yul\":7924:7928   */\n  0x20\n    /* \"#utility.yul\":7911:7928   */\n  swap1\n  pop\n    /* \"#utility.yul\":7956:7958   */\n  0x1f\n    /* \"#utility.yul\":7948:7954   */\n  dup4\n    /* \"#utility.yul\":7945:7959   */\n  gt\n    /* \"#utility.yul\":7973:7974   */\n  0x01\n    /* \"#utility.yul\":7968:8586   */\n  dup2\n  eq\n  tag_143\n  jumpi\n    /* \"#utility.yul\":8630:8631   */\n  0x00\n    /* \"#utility.yul\":8647:8653   */\n  dup5\n    /* \"#utility.yul\":8644:8721   */\n  iszero\n  tag_144\n  jumpi\n    /* \"#utility.yul\":8696:8705   */\n  dup3\n    /* \"#utility.yul\":8691:8694   */\n  dup8\n    /* \"#utility.yul\":8687:8706   */\n  add\n    /* \"#utility.yul\":8681:8707   */\n  mload\n    /* \"#utility.yul\":8672:8707   */\n  swap1\n  pop\n    /* \"#utility.yul\":8644:8721   */\ntag_144:\n    /* \"#utility.yul\":8747:8814   */\n  tag_145\n    /* \"#utility.yul\":8807:8813   */\n  dup6\n    /* \"#utility.yul\":8800:8805   */\n  dup3\n    /* \"#utility.yul\":8747:8814   */\n  tag_44\n  jump\t// in\ntag_145:\n    /* \"#utility.yul\":8741:8745   */\n  dup7\n    /* \"#utility.yul\":8734:8815   */\n  sstore\n    /* \"#utility.yul\":8603:8825   */\n  pop\n    /* \"#utility.yul\":7938:8825   */\n  jump(tag_142)\n    /* \"#utility.yul\":7968:8586   */\ntag_143:\n    /* \"#utility.yul\":8020:8024   */\n  0x1f\n    /* \"#utility.yul\":8016:8025   */\n  not\n    /* \"#utility.yul\":8008:8014   */\n  dup5\n    /* \"#utility.yul\":8004:8026   */\n  and\n    /* \"#utility.yul\":8054:8091   */\n  tag_146\n    /* \"#utility.yul\":8086:8090   */\n  dup7\n    /* \"#utility.yul\":8054:8091   */\n  tag_30\n  jump\t// in\ntag_146:\n    /* \"#utility.yul\":8113:8114   */\n  0x00\n    /* \"#utility.yul\":8127:8335   */\ntag_147:\n    /* \"#utility.yul\":8141:8148   */\n  dup3\n    /* \"#utility.yul\":8138:8139   */\n  dup2\n    /* \"#utility.yul\":8135:8149   */\n  lt\n    /* \"#utility.yul\":8127:8335   */\n  iszero\n  tag_149\n  jumpi\n    /* \"#utility.yul\":8220:8229   */\n  dup5\n    /* \"#utility.yul\":8215:8218   */\n  dup10\n    /* \"#utility.yul\":8211:8230   */\n  add\n    /* \"#utility.yul\":8205:8231   */\n  mload\n    /* \"#utility.yul\":8197:8203   */\n  dup3\n    /* \"#utility.yul\":8190:8232   */\n  sstore\n    /* \"#utility.yul\":8271:8272   */\n  0x01\n    /* \"#utility.yul\":8263:8269   */\n  dup3\n    /* \"#utility.yul\":8259:8273   */\n  add\n    /* \"#utility.yul\":8249:8273   */\n  swap2\n  pop\n    /* \"#utility.yul\":8318:8320   */\n  0x20\n    /* \"#utility.yul\":8307:8316   */\n  dup6\n    /* \"#utility.yul\":8303:8321   */\n  add\n    /* \"#utility.yul\":8290:8321   */\n  swap5\n  pop\n    /* \"#utility.yul\":8164:8168   */\n  0x20\n    /* \"#utility.yul\":8161:8162   */\n  dup2\n    /* \"#utility.yul\":8157:8169   */\n  add\n    /* \"#utility.yul\":8152:8169   */\n  swap1\n  pop\n    /* \"#utility.yul\":8127:8335   */\n  jump(tag_147)\ntag_149:\n    /* \"#utility.yul\":8363:8369   */\n  dup7\n    /* \"#utility.yul\":8354:8361   */\n  dup4\n    /* \"#utility.yul\":8351:8370   */\n  lt\n    /* \"#utility.yul\":8348:8527   */\n  iszero\n  tag_150\n  jumpi\n    /* \"#utility.yul\":8421:8430   */\n  dup5\n    /* \"#utility.yul\":8416:8419   */\n  dup10\n    /* \"#utility.yul\":8412:8431   */\n  add\n    /* \"#utility.yul\":8406:8432   */\n  mload\n    /* \"#utility.yul\":8464:8512   */\n  tag_151\n    /* \"#utility.yul\":8506:8510   */\n  0x1f\n    /* \"#utility.yul\":8498:8504   */\n  dup10\n    /* \"#utility.yul\":8494:8511   */\n  and\n    /* \"#utility.yul\":8483:8492   */\n  dup3\n    /* \"#utility.yul\":8464:8512   */\n  tag_43\n  jump\t// in\ntag_151:\n    /* \"#utility.yul\":8456:8462   */\n  dup4\n    /* \"#utility.yul\":8449:8513   */\n  sstore\n    /* \"#utility.yul\":8371:8527   */\n  pop\n    /* \"#utility.yul\":8348:8527   */\ntag_150:\n    /* \"#utility.yul\":8573:8574   */\n  0x01\n    /* \"#utility.yul\":8569:8570   */\n  0x02\n    /* \"#utility.yul\":8561:8567   */\n  dup9\n    /* \"#utility.yul\":8557:8571   */\n  mul\n    /* \"#utility.yul\":8553:8575   */\n  add\n    /* \"#utility.yul\":8547:8551   */\n  dup9\n    /* \"#utility.yul\":8540:8576   */\n  sstore\n    /* \"#utility.yul\":7975:8586   */\n  pop\n  pop\n  pop\n    /* \"#utility.yul\":7938:8825   */\ntag_142:\n  pop\n    /* \"#utility.yul\":7528:8831   */\n  pop\n  pop\n  pop\n    /* \"#utility.yul\":7436:8831   */\n  pop\n  pop\n  jump\t// out\n    /* \"#utility.yul\":8837:9017   */\ntag_45:\n    /* \"#utility.yul\":8885:8962   */\n  0x4e487b7100000000000000000000000000000000000000000000000000000000\n    /* \"#utility.yul\":8882:8883   */\n  0x00\n    /* \"#utility.yul\":8875:8963   */\n  mstore\n    /* \"#utility.yul\":8982:8986   */\n  0x11\n    /* \"#utility.yul\":8979:8980   */\n  0x04\n    /* \"#utility.yul\":8972:8987   */\n  mstore\n    /* \"#utility.yul\":9006:9010   */\n  0x24\n    /* \"#utility.yul\":9003:9004   */\n  0x00\n    /* \"#utility.yul\":8996:9011   */\n  revert\n    /* \"#utility.yul\":9023:9214   */\ntag_9:\n    /* \"#utility.yul\":9063:9066   */\n  0x00\n    /* \"#utility.yul\":9082:9102   */\n  tag_154\n    /* \"#utility.yul\":9100:9101   */\n  dup3\n    /* \"#utility.yul\":9082:9102   */\n  tag_24\n  jump\t// in\ntag_154:\n    /* \"#utility.yul\":9077:9102   */\n  swap2\n  pop\n    /* \"#utility.yul\":9116:9136   */\n  tag_155\n    /* \"#utility.yul\":9134:9135   */\n  dup4\n    /* \"#utility.yul\":9116:9136   */\n  tag_24\n  jump\t// in\ntag_155:\n    /* \"#utility.yul\":9111:9136   */\n  swap3\n  pop\n    /* \"#utility.yul\":9159:9160   */\n  dup3\n    /* \"#utility.yul\":9156:9157   */\n  dup3\n    /* \"#utility.yul\":9152:9161   */\n  add\n    /* \"#utility.yul\":9145:9161   */\n  swap1\n  pop\n    /* \"#utility.yul\":9180:9183   */\n  dup1\n    /* \"#utility.yul\":9177:9178   */\n  dup3\n    /* \"#utility.yul\":9174:9184   */\n  gt\n    /* \"#utility.yul\":9171:9207   */\n  iszero\n  tag_156\n  jumpi\n    /* \"#utility.yul\":9187:9205   */\n  tag_157\n  tag_45\n  jump\t// in\ntag_157:\n    /* \"#utility.yul\":9171:9207   */\ntag_156:\n    /* \"#utility.yul\":9023:9214   */\n  swap3\n  swap2\n  pop\n  pop\n  jump\t// out\n    /* \"main.sol\":60:1776  contract FundRiser{... */\ntag_10:\n  dataSize(sub_0)\n  dup1\n  dataOffset(sub_0)\n  0x00\n  codecopy\n  0x00\n  return\nstop\n\nsub_0: assembly {\n        /* \"main.sol\":60:1776  contract FundRiser{... */\n      mstore(0x40, 0x80)\n      jumpi(tag_1, lt(calldatasize, 0x04))\n      shr(0xe0, calldataload(0x00))\n      dup1\n      0x481c6a75\n      gt\n      tag_13\n      jumpi\n      dup1\n      0x481c6a75\n      eq\n      tag_7\n      jumpi\n      dup1\n      0xb2d5ae44\n      eq\n      tag_8\n      jumpi\n      dup1\n      0xd321fe29\n      eq\n      tag_9\n      jumpi\n      dup1\n      0xd4b83992\n      eq\n      tag_10\n      jumpi\n      dup1\n      0xebc33c51\n      eq\n      tag_11\n      jumpi\n      dup1\n      0xf251fc8c\n      eq\n      tag_12\n      jumpi\n      jump(tag_1)\n    tag_13:\n      dup1\n      0x06e99fef\n      eq\n      tag_2\n      jumpi\n      dup1\n      0x12065fe0\n      eq\n      tag_3\n      jumpi\n      dup1\n      0x1a39d8ef\n      eq\n      tag_4\n      jumpi\n      dup1\n      0x1f6d4942\n      eq\n      tag_5\n      jumpi\n      dup1\n      0x29dcb0cf\n      eq\n      tag_6\n      jumpi\n    tag_1:\n      0x00\n      dup1\n      revert\n        /* \"main.sol\":584:962  function sendEth() public payable {... */\n    tag_2:\n      tag_14\n      tag_15\n      jump\t// in\n    tag_14:\n      stop\n        /* \"main.sol\":970:1065  function getBalance() public view returns (uint){... */\n    tag_3:\n      callvalue\n      dup1\n      iszero\n      tag_16\n      jumpi\n      0x00\n      dup1\n      revert\n    tag_16:\n      pop\n      tag_17\n      tag_18\n      jump\t// in\n    tag_17:\n      mload(0x40)\n      tag_19\n      swap2\n      swap1\n      tag_20\n      jump\t// in\n    tag_19:\n      mload(0x40)\n      dup1\n      swap2\n      sub\n      swap1\n      return\n        /* \"main.sol\":239:262  uint public totalAmount */\n    tag_4:\n      callvalue\n      dup1\n      iszero\n      tag_21\n      jumpi\n      0x00\n      dup1\n      revert\n    tag_21:\n      pop\n      tag_22\n      tag_23\n      jump\t// in\n    tag_22:\n      mload(0x40)\n      tag_24\n      swap2\n      swap1\n      tag_20\n      jump\t// in\n    tag_24:\n      mload(0x40)\n      dup1\n      swap2\n      sub\n      swap1\n      return\n        /* \"main.sol\":85:128  mapping (address=>uint) public contributors */\n    tag_5:\n      callvalue\n      dup1\n      iszero\n      tag_25\n      jumpi\n      0x00\n      dup1\n      revert\n    tag_25:\n      pop\n      tag_26\n      0x04\n      dup1\n      calldatasize\n      sub\n      dup2\n      add\n      swap1\n      tag_27\n      swap2\n      swap1\n      tag_28\n      jump\t// in\n    tag_27:\n      tag_29\n      jump\t// in\n    tag_26:\n      mload(0x40)\n      tag_30\n      swap2\n      swap1\n      tag_20\n      jump\t// in\n    tag_30:\n      mload(0x40)\n      dup1\n      swap2\n      sub\n      swap1\n      return\n        /* \"main.sol\":305:325  uint public deadline */\n    tag_6:\n      callvalue\n      dup1\n      iszero\n      tag_31\n      jumpi\n      0x00\n      dup1\n      revert\n    tag_31:\n      pop\n      tag_32\n      tag_33\n      jump\t// in\n    tag_32:\n      mload(0x40)\n      tag_34\n      swap2\n      swap1\n      tag_20\n      jump\t// in\n    tag_34:\n      mload(0x40)\n      dup1\n      swap2\n      sub\n      swap1\n      return\n        /* \"main.sol\":135:157  address public manager */\n    tag_7:\n      callvalue\n      dup1\n      iszero\n      tag_35\n      jumpi\n      0x00\n      dup1\n      revert\n    tag_35:\n      pop\n      tag_36\n      tag_37\n      jump\t// in\n    tag_36:\n      mload(0x40)\n      tag_38\n      swap2\n      swap1\n      tag_39\n      jump\t// in\n    tag_38:\n      mload(0x40)\n      dup1\n      swap2\n      sub\n      swap1\n      return\n        /* \"main.sol\":1073:1409  function getRefund() public {... */\n    tag_8:\n      callvalue\n      dup1\n      iszero\n      tag_40\n      jumpi\n      0x00\n      dup1\n      revert\n    tag_40:\n      pop\n      tag_41\n      tag_42\n      jump\t// in\n    tag_41:\n      stop\n        /* \"main.sol\":1537:1773  function getAmount() public onlyManager{... */\n    tag_9:\n      callvalue\n      dup1\n      iszero\n      tag_43\n      jumpi\n      0x00\n      dup1\n      revert\n    tag_43:\n      pop\n      tag_44\n      tag_45\n      jump\t// in\n    tag_44:\n      stop\n        /* \"main.sol\":214:232  uint public target */\n    tag_10:\n      callvalue\n      dup1\n      iszero\n      tag_46\n      jumpi\n      0x00\n      dup1\n      revert\n    tag_46:\n      pop\n      tag_47\n      tag_48\n      jump\t// in\n    tag_47:\n      mload(0x40)\n      tag_49\n      swap2\n      swap1\n      tag_20\n      jump\t// in\n    tag_49:\n      mload(0x40)\n      dup1\n      swap2\n      sub\n      swap1\n      return\n        /* \"main.sol\":185:207  uint public minContrib */\n    tag_11:\n      callvalue\n      dup1\n      iszero\n      tag_50\n      jumpi\n      0x00\n      dup1\n      revert\n    tag_50:\n      pop\n      tag_51\n      tag_52\n      jump\t// in\n    tag_51:\n      mload(0x40)\n      tag_53\n      swap2\n      swap1\n      tag_20\n      jump\t// in\n    tag_53:\n      mload(0x40)\n      dup1\n      swap2\n      sub\n      swap1\n      return\n        /* \"main.sol\":269:298  uint public totalContributors */\n    tag_12:\n      callvalue\n      dup1\n      iszero\n      tag_54\n      jumpi\n      0x00\n      dup1\n      revert\n    tag_54:\n      pop\n      tag_55\n      tag_56\n      jump\t// in\n    tag_55:\n      mload(0x40)\n      tag_57\n      swap2\n      swap1\n      tag_20\n      jump\t// in\n    tag_57:\n      mload(0x40)\n      dup1\n      swap2\n      sub\n      swap1\n      return\n        /* \"main.sol\":584:962  function sendEth() public payable {... */\n    tag_15:\n        /* \"main.sol\":655:663  deadline */\n      sload(0x07)\n        /* \"main.sol\":637:652  block.timestamp */\n      timestamp\n        /* \"main.sol\":637:663  block.timestamp < deadline */\n      lt\n        /* \"main.sol\":629:698  require(block.timestamp < deadline, \"Petition doesn't exist anymore\") */\n      tag_59\n      jumpi\n      mload(0x40)\n      0x08c379a000000000000000000000000000000000000000000000000000000000\n      dup2\n      mstore\n      0x04\n      add\n      tag_60\n      swap1\n      tag_61\n      jump\t// in\n    tag_60:\n      mload(0x40)\n      dup1\n      swap2\n      sub\n      swap1\n      revert\n    tag_59:\n        /* \"main.sol\":730:740  minContrib */\n      sload(0x03)\n        /* \"main.sol\":717:726  msg.value */\n      callvalue\n        /* \"main.sol\":717:740  msg.value >= minContrib */\n      lt\n      iszero\n        /* \"main.sol\":709:783  require(msg.value >= minContrib, \"100 wei is the minimum donation amount\") */\n      tag_62\n      jumpi\n      mload(0x40)\n      0x08c379a000000000000000000000000000000000000000000000000000000000\n      dup2\n      mstore\n      0x04\n      add\n      tag_63\n      swap1\n      tag_64\n      jump\t// in\n    tag_63:\n      mload(0x40)\n      dup1\n      swap2\n      sub\n      swap1\n      revert\n    tag_62:\n        /* \"main.sol\":828:829  0 */\n      0x00\n        /* \"main.sol\":800:812  contributors */\n      dup1\n        /* \"main.sol\":800:824  contributors[msg.sender] */\n      0x00\n        /* \"main.sol\":813:823  msg.sender */\n      caller\n        /* \"main.sol\":800:824  contributors[msg.sender] */\n      0xffffffffffffffffffffffffffffffffffffffff\n      and\n      0xffffffffffffffffffffffffffffffffffffffff\n      and\n      dup2\n      mstore\n      0x20\n      add\n      swap1\n      dup2\n      mstore\n      0x20\n      add\n      0x00\n      keccak256\n      sload\n        /* \"main.sol\":800:829  contributors[msg.sender] == 0 */\n      sub\n        /* \"main.sol\":796:876  if (contributors[msg.sender] == 0){... */\n      tag_65\n      jumpi\n        /* \"main.sol\":845:862  totalContributors */\n      0x06\n      0x00\n        /* \"main.sol\":845:864  totalContributors++ */\n      dup2\n      sload\n      dup1\n      swap3\n      swap2\n      swap1\n      tag_66\n      swap1\n      tag_67\n      jump\t// in\n    tag_66:\n      swap2\n      swap1\n      pop\n      sstore\n      pop\n        /* \"main.sol\":796:876  if (contributors[msg.sender] == 0){... */\n    tag_65:\n        /* \"main.sol\":912:921  msg.value */\n      callvalue\n        /* \"main.sol\":886:898  contributors */\n      0x00\n        /* \"main.sol\":886:910  contributors[msg.sender] */\n      dup1\n        /* \"main.sol\":899:909  msg.sender */\n      caller\n        /* \"main.sol\":886:910  contributors[msg.sender] */\n      0xffffffffffffffffffffffffffffffffffffffff\n      and\n      0xffffffffffffffffffffffffffffffffffffffff\n      and\n      dup2\n      mstore\n      0x20\n      add\n      swap1\n      dup2\n      mstore\n      0x20\n      add\n      0x00\n      keccak256\n      0x00\n        /* \"main.sol\":886:921  contributors[msg.sender]+=msg.value */\n      dup3\n      dup3\n      sload\n      tag_68\n      swap2\n      swap1\n      tag_69\n      jump\t// in\n    tag_68:\n      swap3\n      pop\n      pop\n      dup2\n      swap1\n      sstore\n      pop\n        /* \"main.sol\":945:954  msg.value */\n      callvalue\n        /* \"main.sol\":932:943  totalAmount */\n      0x05\n      0x00\n        /* \"main.sol\":932:954  totalAmount+=msg.value */\n      dup3\n      dup3\n      sload\n      tag_70\n      swap2\n      swap1\n      tag_69\n      jump\t// in\n    tag_70:\n      swap3\n      pop\n      pop\n      dup2\n      swap1\n      sstore\n      pop\n        /* \"main.sol\":584:962  function sendEth() public payable {... */\n      jump\t// out\n        /* \"main.sol\":970:1065  function getBalance() public view returns (uint){... */\n    tag_18:\n        /* \"main.sol\":1013:1017  uint */\n      0x00\n        /* \"main.sol\":1036:1057  address(this).balance */\n      selfbalance\n        /* \"main.sol\":1029:1057  return address(this).balance */\n      swap1\n      pop\n        /* \"main.sol\":970:1065  function getBalance() public view returns (uint){... */\n      swap1\n      jump\t// out\n        /* \"main.sol\":239:262  uint public totalAmount */\n    tag_23:\n      sload(0x05)\n      dup2\n      jump\t// out\n        /* \"main.sol\":85:128  mapping (address=>uint) public contributors */\n    tag_29:\n      mstore(0x20, 0x00)\n      dup1\n      0x00\n      mstore\n      keccak256(0x00, 0x40)\n      0x00\n      swap2\n      pop\n      swap1\n      pop\n      sload\n      dup2\n      jump\t// out\n        /* \"main.sol\":305:325  uint public deadline */\n    tag_33:\n      sload(0x07)\n      dup2\n      jump\t// out\n        /* \"main.sol\":135:157  address public manager */\n    tag_37:\n      0x01\n      0x00\n      swap1\n      sload\n      swap1\n      0x0100\n      exp\n      swap1\n      div\n      0xffffffffffffffffffffffffffffffffffffffff\n      and\n      dup2\n      jump\t// out\n        /* \"main.sol\":1073:1409  function getRefund() public {... */\n    tag_42:\n        /* \"main.sol\":1138:1146  deadline */\n      sload(0x07)\n        /* \"main.sol\":1120:1135  block.timestamp */\n      timestamp\n        /* \"main.sol\":1120:1146  block.timestamp > deadline */\n      gt\n        /* \"main.sol\":1120:1170  block.timestamp > deadline && totalAmount < target */\n      dup1\n      iszero\n      tag_73\n      jumpi\n      pop\n        /* \"main.sol\":1164:1170  target */\n      sload(0x04)\n        /* \"main.sol\":1150:1161  totalAmount */\n      sload(0x05)\n        /* \"main.sol\":1150:1170  totalAmount < target */\n      lt\n        /* \"main.sol\":1120:1170  block.timestamp > deadline && totalAmount < target */\n    tag_73:\n        /* \"main.sol\":1112:1207  require(block.timestamp > deadline && totalAmount < target, \"Refund is not possible right now\") */\n      tag_74\n      jumpi\n      mload(0x40)\n      0x08c379a000000000000000000000000000000000000000000000000000000000\n      dup2\n      mstore\n      0x04\n      add\n      tag_75\n      swap1\n      tag_76\n      jump\t// in\n    tag_75:\n      mload(0x40)\n      dup1\n      swap2\n      sub\n      swap1\n      revert\n    tag_74:\n        /* \"main.sol\":1253:1254  0 */\n      0x00\n        /* \"main.sol\":1226:1238  contributors */\n      dup1\n        /* \"main.sol\":1226:1250  contributors[msg.sender] */\n      0x00\n        /* \"main.sol\":1239:1249  msg.sender */\n      caller\n        /* \"main.sol\":1226:1250  contributors[msg.sender] */\n      0xffffffffffffffffffffffffffffffffffffffff\n      and\n      0xffffffffffffffffffffffffffffffffffffffff\n      and\n      dup2\n      mstore\n      0x20\n      add\n      swap1\n      dup2\n      mstore\n      0x20\n      add\n      0x00\n      keccak256\n      sload\n        /* \"main.sol\":1226:1254  contributors[msg.sender] > 0 */\n      gt\n        /* \"main.sol\":1218:1255  require(contributors[msg.sender] > 0) */\n      tag_77\n      jumpi\n      0x00\n      dup1\n      revert\n    tag_77:\n        /* \"main.sol\":1266:1286  address payable user */\n      0x00\n        /* \"main.sol\":1297:1307  msg.sender */\n      caller\n        /* \"main.sol\":1266:1308  address payable user = payable(msg.sender) */\n      swap1\n      pop\n        /* \"main.sol\":1319:1323  user */\n      dup1\n        /* \"main.sol\":1319:1332  user.transfer */\n      0xffffffffffffffffffffffffffffffffffffffff\n      and\n        /* \"main.sol\":1319:1358  user.transfer(contributors[msg.sender]) */\n      0x08fc\n        /* \"main.sol\":1333:1345  contributors */\n      0x00\n        /* \"main.sol\":1333:1357  contributors[msg.sender] */\n      dup1\n        /* \"main.sol\":1346:1356  msg.sender */\n      caller\n        /* \"main.sol\":1333:1357  contributors[msg.sender] */\n      0xffffffffffffffffffffffffffffffffffffffff\n      and\n      0xffffffffffffffffffffffffffffffffffffffff\n      and\n      dup2\n      mstore\n      0x20\n      add\n      swap1\n      dup2\n      mstore\n      0x20\n      add\n      0x00\n      keccak256\n      sload\n        /* \"main.sol\":1319:1358  user.transfer(contributors[msg.sender]) */\n      swap1\n      dup2\n      iszero\n      mul\n      swap1\n      mload(0x40)\n      0x00\n      mload(0x40)\n      dup1\n      dup4\n      sub\n      dup2\n      dup6\n      dup9\n      dup9\n      call\n      swap4\n      pop\n      pop\n      pop\n      pop\n      iszero\n      dup1\n      iszero\n      tag_79\n      jumpi\n      returndatasize\n      0x00\n      dup1\n      returndatacopy\n      revert(0x00, returndatasize)\n    tag_79:\n      pop\n        /* \"main.sol\":1396:1397  0 */\n      0x00\n        /* \"main.sol\":1369:1381  contributors */\n      dup1\n        /* \"main.sol\":1369:1393  contributors[msg.sender] */\n      0x00\n        /* \"main.sol\":1382:1392  msg.sender */\n      caller\n        /* \"main.sol\":1369:1393  contributors[msg.sender] */\n      0xffffffffffffffffffffffffffffffffffffffff\n      and\n      0xffffffffffffffffffffffffffffffffffffffff\n      and\n      dup2\n      mstore\n      0x20\n      add\n      swap1\n      dup2\n      mstore\n      0x20\n      add\n      0x00\n      keccak256\n        /* \"main.sol\":1369:1397  contributors[msg.sender] = 0 */\n      dup2\n      swap1\n      sstore\n      pop\n        /* \"main.sol\":1101:1409  {... */\n      pop\n        /* \"main.sol\":1073:1409  function getRefund() public {... */\n      jump\t// out\n        /* \"main.sol\":1537:1773  function getAmount() public onlyManager{... */\n    tag_45:\n        /* \"main.sol\":1470:1477  manager */\n      0x01\n      0x00\n      swap1\n      sload\n      swap1\n      0x0100\n      exp\n      swap1\n      div\n      0xffffffffffffffffffffffffffffffffffffffff\n      and\n        /* \"main.sol\":1456:1477  msg.sender == manager */\n      0xffffffffffffffffffffffffffffffffffffffff\n      and\n        /* \"main.sol\":1456:1466  msg.sender */\n      caller\n        /* \"main.sol\":1456:1477  msg.sender == manager */\n      0xffffffffffffffffffffffffffffffffffffffff\n      and\n      eq\n        /* \"main.sol\":1448:1508  require(msg.sender == manager, \"Only admin can access this\") */\n      tag_81\n      jumpi\n      mload(0x40)\n      0x08c379a000000000000000000000000000000000000000000000000000000000\n      dup2\n      mstore\n      0x04\n      add\n      tag_82\n      swap1\n      tag_83\n      jump\t// in\n    tag_82:\n      mload(0x40)\n      dup1\n      swap2\n      sub\n      swap1\n      revert\n    tag_81:\n        /* \"main.sol\":1610:1616  target */\n      sload(0x04)\n        /* \"main.sol\":1595:1606  totalAmount */\n      sload(0x05)\n        /* \"main.sol\":1595:1616  totalAmount >= target */\n      lt\n      iszero\n        /* \"main.sol\":1587:1648  require(totalAmount >= target, \"Target amount didn't reach\" ) */\n      tag_85\n      jumpi\n      mload(0x40)\n      0x08c379a000000000000000000000000000000000000000000000000000000000\n      dup2\n      mstore\n      0x04\n      add\n      tag_86\n      swap1\n      tag_87\n      jump\t// in\n    tag_86:\n      mload(0x40)\n      dup1\n      swap2\n      sub\n      swap1\n      revert\n    tag_85:\n        /* \"main.sol\":1659:1689  address payable managerAddress */\n      0x00\n        /* \"main.sol\":1700:1707  manager */\n      0x01\n      0x00\n      swap1\n      sload\n      swap1\n      0x0100\n      exp\n      swap1\n      div\n      0xffffffffffffffffffffffffffffffffffffffff\n      and\n        /* \"main.sol\":1659:1708  address payable managerAddress = payable(manager) */\n      swap1\n      pop\n        /* \"main.sol\":1719:1733  managerAddress */\n      dup1\n        /* \"main.sol\":1719:1742  managerAddress.transfer */\n      0xffffffffffffffffffffffffffffffffffffffff\n      and\n        /* \"main.sol\":1719:1765  managerAddress.transfer(address(this).balance) */\n      0x08fc\n        /* \"main.sol\":1743:1764  address(this).balance */\n      selfbalance\n        /* \"main.sol\":1719:1765  managerAddress.transfer(address(this).balance) */\n      swap1\n      dup2\n      iszero\n      mul\n      swap1\n      mload(0x40)\n      0x00\n      mload(0x40)\n      dup1\n      dup4\n      sub\n      dup2\n      dup6\n      dup9\n      dup9\n      call\n      swap4\n      pop\n      pop\n      pop\n      pop\n      iszero\n      dup1\n      iszero\n      tag_89\n      jumpi\n      returndatasize\n      0x00\n      dup1\n      returndatacopy\n      revert(0x00, returndatasize)\n    tag_89:\n      pop\n        /* \"main.sol\":1576:1773  {... */\n      pop\n        /* \"main.sol\":1537:1773  function getAmount() public onlyManager{... */\n      jump\t// out\n        /* \"main.sol\":214:232  uint public target */\n    tag_48:\n      sload(0x04)\n      dup2\n      jump\t// out\n        /* \"main.sol\":185:207  uint public minContrib */\n    tag_52:\n      sload(0x03)\n      dup2\n      jump\t// out\n        /* \"main.sol\":269:298  uint public totalContributors */\n    tag_56:\n      sload(0x06)\n      dup2\n      jump\t// out\n        /* \"#utility.yul\":7:84   */\n    tag_90:\n        /* \"#utility.yul\":44:51   */\n      0x00\n        /* \"#utility.yul\":73:78   */\n      dup2\n        /* \"#utility.yul\":62:78   */\n      swap1\n      pop\n        /* \"#utility.yul\":7:84   */\n      swap2\n      swap1\n      pop\n      jump\t// out\n        /* \"#utility.yul\":90:208   */\n    tag_91:\n        /* \"#utility.yul\":177:201   */\n      tag_115\n        /* \"#utility.yul\":195:200   */\n      dup2\n        /* \"#utility.yul\":177:201   */\n      tag_90\n      jump\t// in\n    tag_115:\n        /* \"#utility.yul\":172:175   */\n      dup3\n        /* \"#utility.yul\":165:202   */\n      mstore\n        /* \"#utility.yul\":90:208   */\n      pop\n      pop\n      jump\t// out\n        /* \"#utility.yul\":214:436   */\n    tag_20:\n        /* \"#utility.yul\":307:311   */\n      0x00\n        /* \"#utility.yul\":345:347   */\n      0x20\n        /* \"#utility.yul\":334:343   */\n      dup3\n        /* \"#utility.yul\":330:348   */\n      add\n        /* \"#utility.yul\":322:348   */\n      swap1\n      pop\n        /* \"#utility.yul\":358:429   */\n      tag_117\n        /* \"#utility.yul\":426:427   */\n      0x00\n        /* \"#utility.yul\":415:424   */\n      dup4\n        /* \"#utility.yul\":411:428   */\n      add\n        /* \"#utility.yul\":402:408   */\n      dup5\n        /* \"#utility.yul\":358:429   */\n      tag_91\n      jump\t// in\n    tag_117:\n        /* \"#utility.yul\":214:436   */\n      swap3\n      swap2\n      pop\n      pop\n      jump\t// out\n        /* \"#utility.yul\":523:640   */\n    tag_93:\n        /* \"#utility.yul\":632:633   */\n      0x00\n        /* \"#utility.yul\":629:630   */\n      dup1\n        /* \"#utility.yul\":622:634   */\n      revert\n        /* \"#utility.yul\":769:895   */\n    tag_95:\n        /* \"#utility.yul\":806:813   */\n      0x00\n        /* \"#utility.yul\":846:888   */\n      0xffffffffffffffffffffffffffffffffffffffff\n        /* \"#utility.yul\":839:844   */\n      dup3\n        /* \"#utility.yul\":835:889   */\n      and\n        /* \"#utility.yul\":824:889   */\n      swap1\n      pop\n        /* \"#utility.yul\":769:895   */\n      swap2\n      swap1\n      pop\n      jump\t// out\n        /* \"#utility.yul\":901:997   */\n    tag_96:\n        /* \"#utility.yul\":938:945   */\n      0x00\n        /* \"#utility.yul\":967:991   */\n      tag_123\n        /* \"#utility.yul\":985:990   */\n      dup3\n        /* \"#utility.yul\":967:991   */\n      tag_95\n      jump\t// in\n    tag_123:\n        /* \"#utility.yul\":956:991   */\n      swap1\n      pop\n        /* \"#utility.yul\":901:997   */\n      swap2\n      swap1\n      pop\n      jump\t// out\n        /* \"#utility.yul\":1003:1125   */\n    tag_97:\n        /* \"#utility.yul\":1076:1100   */\n      tag_125\n        /* \"#utility.yul\":1094:1099   */\n      dup2\n        /* \"#utility.yul\":1076:1100   */\n      tag_96\n      jump\t// in\n    tag_125:\n        /* \"#utility.yul\":1069:1074   */\n      dup2\n        /* \"#utility.yul\":1066:1101   */\n      eq\n        /* \"#utility.yul\":1056:1119   */\n      tag_126\n      jumpi\n        /* \"#utility.yul\":1115:1116   */\n      0x00\n        /* \"#utility.yul\":1112:1113   */\n      dup1\n        /* \"#utility.yul\":1105:1117   */\n      revert\n        /* \"#utility.yul\":1056:1119   */\n    tag_126:\n        /* \"#utility.yul\":1003:1125   */\n      pop\n      jump\t// out\n        /* \"#utility.yul\":1131:1270   */\n    tag_98:\n        /* \"#utility.yul\":1177:1182   */\n      0x00\n        /* \"#utility.yul\":1215:1221   */\n      dup2\n        /* \"#utility.yul\":1202:1222   */\n      calldataload\n        /* \"#utility.yul\":1193:1222   */\n      swap1\n      pop\n        /* \"#utility.yul\":1231:1264   */\n      tag_128\n        /* \"#utility.yul\":1258:1263   */\n      dup2\n        /* \"#utility.yul\":1231:1264   */\n      tag_97\n      jump\t// in\n    tag_128:\n        /* \"#utility.yul\":1131:1270   */\n      swap3\n      swap2\n      pop\n      pop\n      jump\t// out\n        /* \"#utility.yul\":1276:1605   */\n    tag_28:\n        /* \"#utility.yul\":1335:1341   */\n      0x00\n        /* \"#utility.yul\":1384:1386   */\n      0x20\n        /* \"#utility.yul\":1372:1381   */\n      dup3\n        /* \"#utility.yul\":1363:1370   */\n      dup5\n        /* \"#utility.yul\":1359:1382   */\n      sub\n        /* \"#utility.yul\":1355:1387   */\n      slt\n        /* \"#utility.yul\":1352:1471   */\n      iszero\n      tag_130\n      jumpi\n        /* \"#utility.yul\":1390:1469   */\n      tag_131\n      tag_93\n      jump\t// in\n    tag_131:\n        /* \"#utility.yul\":1352:1471   */\n    tag_130:\n        /* \"#utility.yul\":1510:1511   */\n      0x00\n        /* \"#utility.yul\":1535:1588   */\n      tag_132\n        /* \"#utility.yul\":1580:1587   */\n      dup5\n        /* \"#utility.yul\":1571:1577   */\n      dup3\n        /* \"#utility.yul\":1560:1569   */\n      dup6\n        /* \"#utility.yul\":1556:1578   */\n      add\n        /* \"#utility.yul\":1535:1588   */\n      tag_98\n      jump\t// in\n    tag_132:\n        /* \"#utility.yul\":1525:1588   */\n      swap2\n      pop\n        /* \"#utility.yul\":1481:1598   */\n      pop\n        /* \"#utility.yul\":1276:1605   */\n      swap3\n      swap2\n      pop\n      pop\n      jump\t// out\n        /* \"#utility.yul\":1611:1729   */\n    tag_99:\n        /* \"#utility.yul\":1698:1722   */\n      tag_134\n        /* \"#utility.yul\":1716:1721   */\n      dup2\n        /* \"#utility.yul\":1698:1722   */\n      tag_96\n      jump\t// in\n    tag_134:\n        /* \"#utility.yul\":1693:1696   */\n      dup3\n        /* \"#utility.yul\":1686:1723   */\n      mstore\n        /* \"#utility.yul\":1611:1729   */\n      pop\n      pop\n      jump\t// out\n        /* \"#utility.yul\":1735:1957   */\n    tag_39:\n        /* \"#utility.yul\":1828:1832   */\n      0x00\n        /* \"#utility.yul\":1866:1868   */\n      0x20\n        /* \"#utility.yul\":1855:1864   */\n      dup3\n        /* \"#utility.yul\":1851:1869   */\n      add\n        /* \"#utility.yul\":1843:1869   */\n      swap1\n      pop\n        /* \"#utility.yul\":1879:1950   */\n      tag_136\n        /* \"#utility.yul\":1947:1948   */\n      0x00\n        /* \"#utility.yul\":1936:1945   */\n      dup4\n        /* \"#utility.yul\":1932:1949   */\n      add\n        /* \"#utility.yul\":1923:1929   */\n      dup5\n        /* \"#utility.yul\":1879:1950   */\n      tag_99\n      jump\t// in\n    tag_136:\n        /* \"#utility.yul\":1735:1957   */\n      swap3\n      swap2\n      pop\n      pop\n      jump\t// out\n        /* \"#utility.yul\":1963:2132   */\n    tag_100:\n        /* \"#utility.yul\":2047:2058   */\n      0x00\n        /* \"#utility.yul\":2081:2087   */\n      dup3\n        /* \"#utility.yul\":2076:2079   */\n      dup3\n        /* \"#utility.yul\":2069:2088   */\n      mstore\n        /* \"#utility.yul\":2121:2125   */\n      0x20\n        /* \"#utility.yul\":2116:2119   */\n      dup3\n        /* \"#utility.yul\":2112:2126   */\n      add\n        /* \"#utility.yul\":2097:2126   */\n      swap1\n      pop\n        /* \"#utility.yul\":1963:2132   */\n      swap3\n      swap2\n      pop\n      pop\n      jump\t// out\n        /* \"#utility.yul\":2138:2318   */\n    tag_101:\n        /* \"#utility.yul\":2278:2310   */\n      0x5065746974696f6e20646f65736e277420657869737420616e796d6f72650000\n        /* \"#utility.yul\":2274:2275   */\n      0x00\n        /* \"#utility.yul\":2266:2272   */\n      dup3\n        /* \"#utility.yul\":2262:2276   */\n      add\n        /* \"#utility.yul\":2255:2311   */\n      mstore\n        /* \"#utility.yul\":2138:2318   */\n      pop\n      jump\t// out\n        /* \"#utility.yul\":2324:2690   */\n    tag_102:\n        /* \"#utility.yul\":2466:2469   */\n      0x00\n        /* \"#utility.yul\":2487:2554   */\n      tag_140\n        /* \"#utility.yul\":2551:2553   */\n      0x1e\n        /* \"#utility.yul\":2546:2549   */\n      dup4\n        /* \"#utility.yul\":2487:2554   */\n      tag_100\n      jump\t// in\n    tag_140:\n        /* \"#utility.yul\":2480:2554   */\n      swap2\n      pop\n        /* \"#utility.yul\":2563:2656   */\n      tag_141\n        /* \"#utility.yul\":2652:2655   */\n      dup3\n        /* \"#utility.yul\":2563:2656   */\n      tag_101\n      jump\t// in\n    tag_141:\n        /* \"#utility.yul\":2681:2683   */\n      0x20\n        /* \"#utility.yul\":2676:2679   */\n      dup3\n        /* \"#utility.yul\":2672:2684   */\n      add\n        /* \"#utility.yul\":2665:2684   */\n      swap1\n      pop\n        /* \"#utility.yul\":2324:2690   */\n      swap2\n      swap1\n      pop\n      jump\t// out\n        /* \"#utility.yul\":2696:3115   */\n    tag_61:\n        /* \"#utility.yul\":2862:2866   */\n      0x00\n        /* \"#utility.yul\":2900:2902   */\n      0x20\n        /* \"#utility.yul\":2889:2898   */\n      dup3\n        /* \"#utility.yul\":2885:2903   */\n      add\n        /* \"#utility.yul\":2877:2903   */\n      swap1\n      pop\n        /* \"#utility.yul\":2949:2958   */\n      dup2\n        /* \"#utility.yul\":2943:2947   */\n      dup2\n        /* \"#utility.yul\":2939:2959   */\n      sub\n        /* \"#utility.yul\":2935:2936   */\n      0x00\n        /* \"#utility.yul\":2924:2933   */\n      dup4\n        /* \"#utility.yul\":2920:2937   */\n      add\n        /* \"#utility.yul\":2913:2960   */\n      mstore\n        /* \"#utility.yul\":2977:3108   */\n      tag_143\n        /* \"#utility.yul\":3103:3107   */\n      dup2\n        /* \"#utility.yul\":2977:3108   */\n      tag_102\n      jump\t// in\n    tag_143:\n        /* \"#utility.yul\":2969:3108   */\n      swap1\n      pop\n        /* \"#utility.yul\":2696:3115   */\n      swap2\n      swap1\n      pop\n      jump\t// out\n        /* \"#utility.yul\":3121:3346   */\n    tag_103:\n        /* \"#utility.yul\":3261:3295   */\n      0x3130302077656920697320746865206d696e696d756d20646f6e6174696f6e20\n        /* \"#utility.yul\":3257:3258   */\n      0x00\n        /* \"#utility.yul\":3249:3255   */\n      dup3\n        /* \"#utility.yul\":3245:3259   */\n      add\n        /* \"#utility.yul\":3238:3296   */\n      mstore\n        /* \"#utility.yul\":3330:3338   */\n      0x616d6f756e740000000000000000000000000000000000000000000000000000\n        /* \"#utility.yul\":3325:3327   */\n      0x20\n        /* \"#utility.yul\":3317:3323   */\n      dup3\n        /* \"#utility.yul\":3313:3328   */\n      add\n        /* \"#utility.yul\":3306:3339   */\n      mstore\n        /* \"#utility.yul\":3121:3346   */\n      pop\n      jump\t// out\n        /* \"#utility.yul\":3352:3718   */\n    tag_104:\n        /* \"#utility.yul\":3494:3497   */\n      0x00\n        /* \"#utility.yul\":3515:3582   */\n      tag_146\n        /* \"#utility.yul\":3579:3581   */\n      0x26\n        /* \"#utility.yul\":3574:3577   */\n      dup4\n        /* \"#utility.yul\":3515:3582   */\n      tag_100\n      jump\t// in\n    tag_146:\n        /* \"#utility.yul\":3508:3582   */\n      swap2\n      pop\n        /* \"#utility.yul\":3591:3684   */\n      tag_147\n        /* \"#utility.yul\":3680:3683   */\n      dup3\n        /* \"#utility.yul\":3591:3684   */\n      tag_103\n      jump\t// in\n    tag_147:\n        /* \"#utility.yul\":3709:3711   */\n      0x40\n        /* \"#utility.yul\":3704:3707   */\n      dup3\n        /* \"#utility.yul\":3700:3712   */\n      add\n        /* \"#utility.yul\":3693:3712   */\n      swap1\n      pop\n        /* \"#utility.yul\":3352:3718   */\n      swap2\n      swap1\n      pop\n      jump\t// out\n        /* \"#utility.yul\":3724:4143   */\n    tag_64:\n        /* \"#utility.yul\":3890:3894   */\n      0x00\n        /* \"#utility.yul\":3928:3930   */\n      0x20\n        /* \"#utility.yul\":3917:3926   */\n      dup3\n        /* \"#utility.yul\":3913:3931   */\n      add\n        /* \"#utility.yul\":3905:3931   */\n      swap1\n      pop\n        /* \"#utility.yul\":3977:3986   */\n      dup2\n        /* \"#utility.yul\":3971:3975   */\n      dup2\n        /* \"#utility.yul\":3967:3987   */\n      sub\n        /* \"#utility.yul\":3963:3964   */\n      0x00\n        /* \"#utility.yul\":3952:3961   */\n      dup4\n        /* \"#utility.yul\":3948:3965   */\n      add\n        /* \"#utility.yul\":3941:3988   */\n      mstore\n        /* \"#utility.yul\":4005:4136   */\n      tag_149\n        /* \"#utility.yul\":4131:4135   */\n      dup2\n        /* \"#utility.yul\":4005:4136   */\n      tag_104\n      jump\t// in\n    tag_149:\n        /* \"#utility.yul\":3997:4136   */\n      swap1\n      pop\n        /* \"#utility.yul\":3724:4143   */\n      swap2\n      swap1\n      pop\n      jump\t// out\n        /* \"#utility.yul\":4149:4329   */\n    tag_105:\n        /* \"#utility.yul\":4197:4274   */\n      0x4e487b7100000000000000000000000000000000000000000000000000000000\n        /* \"#utility.yul\":4194:4195   */\n      0x00\n        /* \"#utility.yul\":4187:4275   */\n      mstore\n        /* \"#utility.yul\":4294:4298   */\n      0x11\n        /* \"#utility.yul\":4291:4292   */\n      0x04\n        /* \"#utility.yul\":4284:4299   */\n      mstore\n        /* \"#utility.yul\":4318:4322   */\n      0x24\n        /* \"#utility.yul\":4315:4316   */\n      0x00\n        /* \"#utility.yul\":4308:4323   */\n      revert\n        /* \"#utility.yul\":4335:4568   */\n    tag_67:\n        /* \"#utility.yul\":4374:4377   */\n      0x00\n        /* \"#utility.yul\":4397:4421   */\n      tag_152\n        /* \"#utility.yul\":4415:4420   */\n      dup3\n        /* \"#utility.yul\":4397:4421   */\n      tag_90\n      jump\t// in\n    tag_152:\n        /* \"#utility.yul\":4388:4421   */\n      swap2\n      pop\n        /* \"#utility.yul\":4443:4509   */\n      0xffffffffffffffffffffffffffffffffffffffffffffffffffffffffffffffff\n        /* \"#utility.yul\":4436:4441   */\n      dup3\n        /* \"#utility.yul\":4433:4510   */\n      sub\n        /* \"#utility.yul\":4430:4533   */\n      tag_153\n      jumpi\n        /* \"#utility.yul\":4513:4531   */\n      tag_154\n      tag_105\n      jump\t// in\n    tag_154:\n        /* \"#utility.yul\":4430:4533   */\n    tag_153:\n        /* \"#utility.yul\":4560:4561   */\n      0x01\n        /* \"#utility.yul\":4553:4558   */\n      dup3\n        /* \"#utility.yul\":4549:4562   */\n      add\n        /* \"#utility.yul\":4542:4562   */\n      swap1\n      pop\n        /* \"#utility.yul\":4335:4568   */\n      swap2\n      swap1\n      pop\n      jump\t// out\n        /* \"#utility.yul\":4574:4765   */\n    tag_69:\n        /* \"#utility.yul\":4614:4617   */\n      0x00\n        /* \"#utility.yul\":4633:4653   */\n      tag_156\n        /* \"#utility.yul\":4651:4652   */\n      dup3\n        /* \"#utility.yul\":4633:4653   */\n      tag_90\n      jump\t// in\n    tag_156:\n        /* \"#utility.yul\":4628:4653   */\n      swap2\n      pop\n        /* \"#utility.yul\":4667:4687   */\n      tag_157\n        /* \"#utility.yul\":4685:4686   */\n      dup4\n        /* \"#utility.yul\":4667:4687   */\n      tag_90\n      jump\t// in\n    tag_157:\n        /* \"#utility.yul\":4662:4687   */\n      swap3\n      pop\n        /* \"#utility.yul\":4710:4711   */\n      dup3\n        /* \"#utility.yul\":4707:4708   */\n      dup3\n        /* \"#utility.yul\":4703:4712   */\n      add\n        /* \"#utility.yul\":4696:4712   */\n      swap1\n      pop\n        /* \"#utility.yul\":4731:4734   */\n      dup1\n        /* \"#utility.yul\":4728:4729   */\n      dup3\n        /* \"#utility.yul\":4725:4735   */\n      gt\n        /* \"#utility.yul\":4722:4758   */\n      iszero\n      tag_158\n      jumpi\n        /* \"#utility.yul\":4738:4756   */\n      tag_159\n      tag_105\n      jump\t// in\n    tag_159:\n        /* \"#utility.yul\":4722:4758   */\n    tag_158:\n        /* \"#utility.yul\":4574:4765   */\n      swap3\n      swap2\n      pop\n      pop\n      jump\t// out\n        /* \"#utility.yul\":4771:4953   */\n    tag_106:\n        /* \"#utility.yul\":4911:4945   */\n      0x526566756e64206973206e6f7420706f737369626c65207269676874206e6f77\n        /* \"#utility.yul\":4907:4908   */\n      0x00\n        /* \"#utility.yul\":4899:4905   */\n      dup3\n        /* \"#utility.yul\":4895:4909   */\n      add\n        /* \"#utility.yul\":4888:4946   */\n      mstore\n        /* \"#utility.yul\":4771:4953   */\n      pop\n      jump\t// out\n        /* \"#utility.yul\":4959:5325   */\n    tag_107:\n        /* \"#utility.yul\":5101:5104   */\n      0x00\n        /* \"#utility.yul\":5122:5189   */\n      tag_162\n        /* \"#utility.yul\":5186:5188   */\n      0x20\n        /* \"#utility.yul\":5181:5184   */\n      dup4\n        /* \"#utility.yul\":5122:5189   */\n      tag_100\n      jump\t// in\n    tag_162:\n        /* \"#utility.yul\":5115:5189   */\n      swap2\n      pop\n        /* \"#utility.yul\":5198:5291   */\n      tag_163\n        /* \"#utility.yul\":5287:5290   */\n      dup3\n        /* \"#utility.yul\":5198:5291   */\n      tag_106\n      jump\t// in\n    tag_163:\n        /* \"#utility.yul\":5316:5318   */\n      0x20\n        /* \"#utility.yul\":5311:5314   */\n      dup3\n        /* \"#utility.yul\":5307:5319   */\n      add\n        /* \"#utility.yul\":5300:5319   */\n      swap1\n      pop\n        /* \"#utility.yul\":4959:5325   */\n      swap2\n      swap1\n      pop\n      jump\t// out\n        /* \"#utility.yul\":5331:5750   */\n    tag_76:\n        /* \"#utility.yul\":5497:5501   */\n      0x00\n        /* \"#utility.yul\":5535:5537   */\n      0x20\n        /* \"#utility.yul\":5524:5533   */\n      dup3\n        /* \"#utility.yul\":5520:5538   */\n      add\n        /* \"#utility.yul\":5512:5538   */\n      swap1\n      pop\n        /* \"#utility.yul\":5584:5593   */\n      dup2\n        /* \"#utility.yul\":5578:5582   */\n      dup2\n        /* \"#utility.yul\":5574:5594   */\n      sub\n        /* \"#utility.yul\":5570:5571   */\n      0x00\n        /* \"#utility.yul\":5559:5568   */\n      dup4\n        /* \"#utility.yul\":5555:5572   */\n      add\n        /* \"#utility.yul\":5548:5595   */\n      mstore\n        /* \"#utility.yul\":5612:5743   */\n      tag_165\n        /* \"#utility.yul\":5738:5742   */\n      dup2\n        /* \"#utility.yul\":5612:5743   */\n      tag_107\n      jump\t// in\n    tag_165:\n        /* \"#utility.yul\":5604:5743   */\n      swap1\n      pop\n        /* \"#utility.yul\":5331:5750   */\n      swap2\n      swap1\n      pop\n      jump\t// out\n        /* \"#utility.yul\":5756:5932   */\n    tag_108:\n        /* \"#utility.yul\":5896:5924   */\n      0x4f6e6c792061646d696e2063616e206163636573732074686973000000000000\n        /* \"#utility.yul\":5892:5893   */\n      0x00\n        /* \"#utility.yul\":5884:5890   */\n      dup3\n        /* \"#utility.yul\":5880:5894   */\n      add\n        /* \"#utility.yul\":5873:5925   */\n      mstore\n        /* \"#utility.yul\":5756:5932   */\n      pop\n      jump\t// out\n        /* \"#utility.yul\":5938:6304   */\n    tag_109:\n        /* \"#utility.yul\":6080:6083   */\n      0x00\n        /* \"#utility.yul\":6101:6168   */\n      tag_168\n        /* \"#utility.yul\":6165:6167   */\n      0x1a\n        /* \"#utility.yul\":6160:6163   */\n      dup4\n        /* \"#utility.yul\":6101:6168   */\n      tag_100\n      jump\t// in\n    tag_168:\n        /* \"#utility.yul\":6094:6168   */\n      swap2\n      pop\n        /* \"#utility.yul\":6177:6270   */\n      tag_169\n        /* \"#utility.yul\":6266:6269   */\n      dup3\n        /* \"#utility.yul\":6177:6270   */\n      tag_108\n      jump\t// in\n    tag_169:\n        /* \"#utility.yul\":6295:6297   */\n      0x20\n        /* \"#utility.yul\":6290:6293   */\n      dup3\n        /* \"#utility.yul\":6286:6298   */\n      add\n        /* \"#utility.yul\":6279:6298   */\n      swap1\n      pop\n        /* \"#utility.yul\":5938:6304   */\n      swap2\n      swap1\n      pop\n      jump\t// out\n        /* \"#utility.yul\":6310:6729   */\n    tag_83:\n        /* \"#utility.yul\":6476:6480   */\n      0x00\n        /* \"#utility.yul\":6514:6516   */\n      0x20\n        /* \"#utility.yul\":6503:6512   */\n      dup3\n        /* \"#utility.yul\":6499:6517   */\n      add\n        /* \"#utility.yul\":6491:6517   */\n      swap1\n      pop\n        /* \"#utility.yul\":6563:6572   */\n      dup2\n        /* \"#utility.yul\":6557:6561   */\n      dup2\n        /* \"#utility.yul\":6553:6573   */\n      sub\n        /* \"#utility.yul\":6549:6550   */\n      0x00\n        /* \"#utility.yul\":6538:6547   */\n      dup4\n        /* \"#utility.yul\":6534:6551   */\n      add\n        /* \"#utility.yul\":6527:6574   */\n      mstore\n        /* \"#utility.yul\":6591:6722   */\n      tag_171\n        /* \"#utility.yul\":6717:6721   */\n      dup2\n        /* \"#utility.yul\":6591:6722   */\n      tag_109\n      jump\t// in\n    tag_171:\n        /* \"#utility.yul\":6583:6722   */\n      swap1\n      pop\n        /* \"#utility.yul\":6310:6729   */\n      swap2\n      swap1\n      pop\n      jump\t// out\n        /* \"#utility.yul\":6735:6911   */\n    tag_110:\n        /* \"#utility.yul\":6875:6903   */\n      0x54617267657420616d6f756e74206469646e2774207265616368000000000000\n        /* \"#utility.yul\":6871:6872   */\n      0x00\n        /* \"#utility.yul\":6863:6869   */\n      dup3\n        /* \"#utility.yul\":6859:6873   */\n      add\n        /* \"#utility.yul\":6852:6904   */\n      mstore\n        /* \"#utility.yul\":6735:6911   */\n      pop\n      jump\t// out\n        /* \"#utility.yul\":6917:7283   */\n    tag_111:\n        /* \"#utility.yul\":7059:7062   */\n      0x00\n        /* \"#utility.yul\":7080:7147   */\n      tag_174\n        /* \"#utility.yul\":7144:7146   */\n      0x1a\n        /* \"#utility.yul\":7139:7142   */\n      dup4\n        /* \"#utility.yul\":7080:7147   */\n      tag_100\n      jump\t// in\n    tag_174:\n        /* \"#utility.yul\":7073:7147   */\n      swap2\n      pop\n        /* \"#utility.yul\":7156:7249   */\n      tag_175\n        /* \"#utility.yul\":7245:7248   */\n      dup3\n        /* \"#utility.yul\":7156:7249   */\n      tag_110\n      jump\t// in\n    tag_175:\n        /* \"#utility.yul\":7274:7276   */\n      0x20\n        /* \"#utility.yul\":7269:7272   */\n      dup3\n        /* \"#utility.yul\":7265:7277   */\n      add\n        /* \"#utility.yul\":7258:7277   */\n      swap1\n      pop\n        /* \"#utility.yul\":6917:7283   */\n      swap2\n      swap1\n      pop\n      jump\t// out\n        /* \"#utility.yul\":7289:7708   */\n    tag_87:\n        /* \"#utility.yul\":7455:7459   */\n      0x00\n        /* \"#utility.yul\":7493:7495   */\n      0x20\n        /* \"#utility.yul\":7482:7491   */\n      dup3\n        /* \"#utility.yul\":7478:7496   */\n      add\n        /* \"#utility.yul\":7470:7496   */\n      swap1\n      pop\n        /* \"#utility.yul\":7542:7551   */\n      dup2\n        /* \"#utility.yul\":7536:7540   */\n      dup2\n        /* \"#utility.yul\":7532:7552   */\n      sub\n        /* \"#utility.yul\":7528:7529   */\n      0x00\n        /* \"#utility.yul\":7517:7526   */\n      dup4\n        /* \"#utility.yul\":7513:7530   */\n      add\n        /* \"#utility.yul\":7506:7553   */\n      mstore\n        /* \"#utility.yul\":7570:7701   */\n      tag_177\n        /* \"#utility.yul\":7696:7700   */\n      dup2\n        /* \"#utility.yul\":7570:7701   */\n      tag_111\n      jump\t// in\n    tag_177:\n        /* \"#utility.yul\":7562:7701   */\n      swap1\n      pop\n        /* \"#utility.yul\":7289:7708   */\n      swap2\n      swap1\n      pop\n      jump\t// out\n\n    auxdata: 0xa264697066735822122053bdedd950eec71a413aa9c68f76a273539f81eb83c8974514c86a618fad285d64736f6c63430008120033\n}\n",
				"bytecode": {
					"linkReferences": {},
					"object": "60806040523480156200001157600080fd5b506040516200117938038062001179833981810160405281019062000037919062000284565b826002908162000048919062000540565b508160048190555080426200005e919062000656565b600781905550606460038190555033600160006101000a81548173ffffffffffffffffffffffffffffffffffffffff021916908373ffffffffffffffffffffffffffffffffffffffff16021790555050505062000691565b6000604051905090565b600080fd5b600080fd5b600080fd5b600080fd5b6000601f19601f8301169050919050565b7f4e487b7100000000000000000000000000000000000000000000000000000000600052604160045260246000fd5b6200011f82620000d4565b810181811067ffffffffffffffff82111715620001415762000140620000e5565b5b80604052505050565b600062000156620000b6565b905062000164828262000114565b919050565b600067ffffffffffffffff821115620001875762000186620000e5565b5b6200019282620000d4565b9050602081019050919050565b60005b83811015620001bf578082015181840152602081019050620001a2565b60008484015250505050565b6000620001e2620001dc8462000169565b6200014a565b905082815260208101848484011115620002015762000200620000cf565b5b6200020e8482856200019f565b509392505050565b600082601f8301126200022e576200022d620000ca565b5b815162000240848260208601620001cb565b91505092915050565b6000819050919050565b6200025e8162000249565b81146200026a57600080fd5b50565b6000815190506200027e8162000253565b92915050565b600080600060608486031215620002a0576200029f620000c0565b5b600084015167ffffffffffffffff811115620002c157620002c0620000c5565b5b620002cf8682870162000216565b9350506020620002e2868287016200026d565b9250506040620002f5868287016200026d565b9150509250925092565b600081519050919050565b7f4e487b7100000000000000000000000000000000000000000000000000000000600052602260045260246000fd5b600060028204905060018216806200035257607f821691505b6020821081036200036857620003676200030a565b5b50919050565b60008190508160005260206000209050919050565b60006020601f8301049050919050565b600082821b905092915050565b600060088302620003d27fffffffffffffffffffffffffffffffffffffffffffffffffffffffffffffffff8262000393565b620003de868362000393565b95508019841693508086168417925050509392505050565b6000819050919050565b6000620004216200041b620004158462000249565b620003f6565b62000249565b9050919050565b6000819050919050565b6200043d8362000400565b620004556200044c8262000428565b848454620003a0565b825550505050565b600090565b6200046c6200045d565b6200047981848462000432565b505050565b5b81811015620004a1576200049560008262000462565b6001810190506200047f565b5050565b601f821115620004f057620004ba816200036e565b620004c58462000383565b81016020851015620004d5578190505b620004ed620004e48562000383565b8301826200047e565b50505b505050565b600082821c905092915050565b60006200051560001984600802620004f5565b1980831691505092915050565b600062000530838362000502565b9150826002028217905092915050565b6200054b82620002ff565b67ffffffffffffffff811115620005675762000566620000e5565b5b62000573825462000339565b62000580828285620004a5565b600060209050601f831160018114620005b85760008415620005a3578287015190505b620005af858262000522565b8655506200061f565b601f198416620005c8866200036e565b60005b82811015620005f257848901518255600182019150602085019450602081019050620005cb565b868310156200061257848901516200060e601f89168262000502565b8355505b6001600288020188555050505b505050505050565b7f4e487b7100000000000000000000000000000000000000000000000000000000600052601160045260246000fd5b6000620006638262000249565b9150620006708362000249565b92508282019050808211156200068b576200068a62000627565b5b92915050565b610ad880620006a16000396000f3fe60806040526004361061009c5760003560e01c8063481c6a7511610064578063481c6a7514610169578063b2d5ae4414610194578063d321fe29146101ab578063d4b83992146101c2578063ebc33c51146101ed578063f251fc8c146102185761009c565b806306e99fef146100a157806312065fe0146100ab5780631a39d8ef146100d65780631f6d49421461010157806329dcb0cf1461013e575b600080fd5b6100a9610243565b005b3480156100b757600080fd5b506100c061039b565b6040516100cd91906106cf565b60405180910390f35b3480156100e257600080fd5b506100eb6103a3565b6040516100f891906106cf565b60405180910390f35b34801561010d57600080fd5b506101286004803603810190610123919061074d565b6103a9565b60405161013591906106cf565b60405180910390f35b34801561014a57600080fd5b506101536103c1565b60405161016091906106cf565b60405180910390f35b34801561017557600080fd5b5061017e6103c7565b60405161018b9190610789565b60405180910390f35b3480156101a057600080fd5b506101a96103ed565b005b3480156101b757600080fd5b506101c061055c565b005b3480156101ce57600080fd5b506101d76106a4565b6040516101e491906106cf565b60405180910390f35b3480156101f957600080fd5b506102026106aa565b60405161020f91906106cf565b60405180910390f35b34801561022457600080fd5b5061022d6106b0565b60405161023a91906106cf565b60405180910390f35b6007544210610287576040517f08c379a000000000000000000000000000000000000000000000000000000000815260040161027e90610801565b60405180910390fd5b6003543410156102cc576040517f08c379a00000000000000000000000000000000000000000000000000000000081526004016102c390610893565b60405180910390fd5b60008060003373ffffffffffffffffffffffffffffffffffffffff1673ffffffffffffffffffffffffffffffffffffffff168152602001908152602001600020540361032b5760066000815480929190610325906108e2565b91905055505b346000803373ffffffffffffffffffffffffffffffffffffffff1673ffffffffffffffffffffffffffffffffffffffff1681526020019081526020016000206000828254610379919061092a565b925050819055503460056000828254610392919061092a565b92505081905550565b600047905090565b60055481565b60006020528060005260406000206000915090505481565b60075481565b600160009054906101000a900473ffffffffffffffffffffffffffffffffffffffff1681565b600754421180156104015750600454600554105b610440576040517f08c379a0000000000000000000000000000000000000000000000000000000008152600401610437906109aa565b60405180910390fd5b60008060003373ffffffffffffffffffffffffffffffffffffffff1673ffffffffffffffffffffffffffffffffffffffff168152602001908152602001600020541161048b57600080fd5b60003390508073ffffffffffffffffffffffffffffffffffffffff166108fc6000803373ffffffffffffffffffffffffffffffffffffffff1673ffffffffffffffffffffffffffffffffffffffff168152602001908152602001600020549081150290604051600060405180830381858888f19350505050158015610514573d6000803e3d6000fd5b5060008060003373ffffffffffffffffffffffffffffffffffffffff1673ffffffffffffffffffffffffffffffffffffffff1681526020019081526020016000208190555050565b600160009054906101000a900473ffffffffffffffffffffffffffffffffffffffff1673ffffffffffffffffffffffffffffffffffffffff163373ffffffffffffffffffffffffffffffffffffffff16146105ec576040517f08c379a00000000000000000000000000000000000000000000000000000000081526004016105e390610a16565b60405180910390fd5b6004546005541015610633576040517f08c379a000000000000000000000000000000000000000000000000000000000815260040161062a90610a82565b60405180910390fd5b6000600160009054906101000a900473ffffffffffffffffffffffffffffffffffffffff1690508073ffffffffffffffffffffffffffffffffffffffff166108fc479081150290604051600060405180830381858888f193505050501580156106a0573d6000803e3d6000fd5b5050565b60045481565b60035481565b60065481565b6000819050919050565b6106c9816106b6565b82525050565b60006020820190506106e460008301846106c0565b92915050565b600080fd5b600073ffffffffffffffffffffffffffffffffffffffff82169050919050565b600061071a826106ef565b9050919050565b61072a8161070f565b811461073557600080fd5b50565b60008135905061074781610721565b92915050565b600060208284031215610763576107626106ea565b5b600061077184828501610738565b91505092915050565b6107838161070f565b82525050565b600060208201905061079e600083018461077a565b92915050565b600082825260208201905092915050565b7f5065746974696f6e20646f65736e277420657869737420616e796d6f72650000600082015250565b60006107eb601e836107a4565b91506107f6826107b5565b602082019050919050565b6000602082019050818103600083015261081a816107de565b9050919050565b7f3130302077656920697320746865206d696e696d756d20646f6e6174696f6e2060008201527f616d6f756e740000000000000000000000000000000000000000000000000000602082015250565b600061087d6026836107a4565b915061088882610821565b604082019050919050565b600060208201905081810360008301526108ac81610870565b9050919050565b7f4e487b7100000000000000000000000000000000000000000000000000000000600052601160045260246000fd5b60006108ed826106b6565b91507fffffffffffffffffffffffffffffffffffffffffffffffffffffffffffffffff820361091f5761091e6108b3565b5b600182019050919050565b6000610935826106b6565b9150610940836106b6565b9250828201905080821115610958576109576108b3565b5b92915050565b7f526566756e64206973206e6f7420706f737369626c65207269676874206e6f77600082015250565b60006109946020836107a4565b915061099f8261095e565b602082019050919050565b600060208201905081810360008301526109c381610987565b9050919050565b7f4f6e6c792061646d696e2063616e206163636573732074686973000000000000600082015250565b6000610a00601a836107a4565b9150610a0b826109ca565b602082019050919050565b60006020820190508181036000830152610a2f816109f3565b9050919050565b7f54617267657420616d6f756e74206469646e2774207265616368000000000000600082015250565b6000610a6c601a836107a4565b9150610a7782610a36565b602082019050919050565b60006020820190508181036000830152610a9b81610a5f565b905091905056fea264697066735822122053bdedd950eec71a413aa9c68f76a273539f81eb83c8974514c86a618fad285d64736f6c63430008120033",
					"opcodes": "PUSH1 0x80 PUSH1 0x40 MSTORE CALLVALUE DUP1 ISZERO PUSH3 0x11 JUMPI PUSH1 0x0 DUP1 REVERT JUMPDEST POP PUSH1 0x40 MLOAD PUSH3 0x1179 CODESIZE SUB DUP1 PUSH3 0x1179 DUP4 CODECOPY DUP2 DUP2 ADD PUSH1 0x40 MSTORE DUP2 ADD SWAP1 PUSH3 0x37 SWAP2 SWAP1 PUSH3 0x284 JUMP JUMPDEST DUP3 PUSH1 0x2 SWAP1 DUP2 PUSH3 0x48 SWAP2 SWAP1 PUSH3 0x540 JUMP JUMPDEST POP DUP2 PUSH1 0x4 DUP2 SWAP1 SSTORE POP DUP1 TIMESTAMP PUSH3 0x5E SWAP2 SWAP1 PUSH3 0x656 JUMP JUMPDEST PUSH1 0x7 DUP2 SWAP1 SSTORE POP PUSH1 0x64 PUSH1 0x3 DUP2 SWAP1 SSTORE POP CALLER PUSH1 0x1 PUSH1 0x0 PUSH2 0x100 EXP DUP2 SLOAD DUP2 PUSH20 0xFFFFFFFFFFFFFFFFFFFFFFFFFFFFFFFFFFFFFFFF MUL NOT AND SWAP1 DUP4 PUSH20 0xFFFFFFFFFFFFFFFFFFFFFFFFFFFFFFFFFFFFFFFF AND MUL OR SWAP1 SSTORE POP POP POP POP PUSH3 0x691 JUMP JUMPDEST PUSH1 0x0 PUSH1 0x40 MLOAD SWAP1 POP SWAP1 JUMP JUMPDEST PUSH1 0x0 DUP1 REVERT JUMPDEST PUSH1 0x0 DUP1 REVERT JUMPDEST PUSH1 0x0 DUP1 REVERT JUMPDEST PUSH1 0x0 DUP1 REVERT JUMPDEST PUSH1 0x0 PUSH1 0x1F NOT PUSH1 0x1F DUP4 ADD AND SWAP1 POP SWAP2 SWAP1 POP JUMP JUMPDEST PUSH32 0x4E487B7100000000000000000000000000000000000000000000000000000000 PUSH1 0x0 MSTORE PUSH1 0x41 PUSH1 0x4 MSTORE PUSH1 0x24 PUSH1 0x0 REVERT JUMPDEST PUSH3 0x11F DUP3 PUSH3 0xD4 JUMP JUMPDEST DUP2 ADD DUP2 DUP2 LT PUSH8 0xFFFFFFFFFFFFFFFF DUP3 GT OR ISZERO PUSH3 0x141 JUMPI PUSH3 0x140 PUSH3 0xE5 JUMP JUMPDEST JUMPDEST DUP1 PUSH1 0x40 MSTORE POP POP POP JUMP JUMPDEST PUSH1 0x0 PUSH3 0x156 PUSH3 0xB6 JUMP JUMPDEST SWAP1 POP PUSH3 0x164 DUP3 DUP3 PUSH3 0x114 JUMP JUMPDEST SWAP2 SWAP1 POP JUMP JUMPDEST PUSH1 0x0 PUSH8 0xFFFFFFFFFFFFFFFF DUP3 GT ISZERO PUSH3 0x187 JUMPI PUSH3 0x186 PUSH3 0xE5 JUMP JUMPDEST JUMPDEST PUSH3 0x192 DUP3 PUSH3 0xD4 JUMP JUMPDEST SWAP1 POP PUSH1 0x20 DUP2 ADD SWAP1 POP SWAP2 SWAP1 POP JUMP JUMPDEST PUSH1 0x0 JUMPDEST DUP4 DUP2 LT ISZERO PUSH3 0x1BF JUMPI DUP1 DUP3 ADD MLOAD DUP2 DUP5 ADD MSTORE PUSH1 0x20 DUP2 ADD SWAP1 POP PUSH3 0x1A2 JUMP JUMPDEST PUSH1 0x0 DUP5 DUP5 ADD MSTORE POP POP POP POP JUMP JUMPDEST PUSH1 0x0 PUSH3 0x1E2 PUSH3 0x1DC DUP5 PUSH3 0x169 JUMP JUMPDEST PUSH3 0x14A JUMP JUMPDEST SWAP1 POP DUP3 DUP2 MSTORE PUSH1 0x20 DUP2 ADD DUP5 DUP5 DUP5 ADD GT ISZERO PUSH3 0x201 JUMPI PUSH3 0x200 PUSH3 0xCF JUMP JUMPDEST JUMPDEST PUSH3 0x20E DUP5 DUP3 DUP6 PUSH3 0x19F JUMP JUMPDEST POP SWAP4 SWAP3 POP POP POP JUMP JUMPDEST PUSH1 0x0 DUP3 PUSH1 0x1F DUP4 ADD SLT PUSH3 0x22E JUMPI PUSH3 0x22D PUSH3 0xCA JUMP JUMPDEST JUMPDEST DUP2 MLOAD PUSH3 0x240 DUP5 DUP3 PUSH1 0x20 DUP7 ADD PUSH3 0x1CB JUMP JUMPDEST SWAP2 POP POP SWAP3 SWAP2 POP POP JUMP JUMPDEST PUSH1 0x0 DUP2 SWAP1 POP SWAP2 SWAP1 POP JUMP JUMPDEST PUSH3 0x25E DUP2 PUSH3 0x249 JUMP JUMPDEST DUP2 EQ PUSH3 0x26A JUMPI PUSH1 0x0 DUP1 REVERT JUMPDEST POP JUMP JUMPDEST PUSH1 0x0 DUP2 MLOAD SWAP1 POP PUSH3 0x27E DUP2 PUSH3 0x253 JUMP JUMPDEST SWAP3 SWAP2 POP POP JUMP JUMPDEST PUSH1 0x0 DUP1 PUSH1 0x0 PUSH1 0x60 DUP5 DUP7 SUB SLT ISZERO PUSH3 0x2A0 JUMPI PUSH3 0x29F PUSH3 0xC0 JUMP JUMPDEST JUMPDEST PUSH1 0x0 DUP5 ADD MLOAD PUSH8 0xFFFFFFFFFFFFFFFF DUP2 GT ISZERO PUSH3 0x2C1 JUMPI PUSH3 0x2C0 PUSH3 0xC5 JUMP JUMPDEST JUMPDEST PUSH3 0x2CF DUP7 DUP3 DUP8 ADD PUSH3 0x216 JUMP JUMPDEST SWAP4 POP POP PUSH1 0x20 PUSH3 0x2E2 DUP7 DUP3 DUP8 ADD PUSH3 0x26D JUMP JUMPDEST SWAP3 POP POP PUSH1 0x40 PUSH3 0x2F5 DUP7 DUP3 DUP8 ADD PUSH3 0x26D JUMP JUMPDEST SWAP2 POP POP SWAP3 POP SWAP3 POP SWAP3 JUMP JUMPDEST PUSH1 0x0 DUP2 MLOAD SWAP1 POP SWAP2 SWAP1 POP JUMP JUMPDEST PUSH32 0x4E487B7100000000000000000000000000000000000000000000000000000000 PUSH1 0x0 MSTORE PUSH1 0x22 PUSH1 0x4 MSTORE PUSH1 0x24 PUSH1 0x0 REVERT JUMPDEST PUSH1 0x0 PUSH1 0x2 DUP3 DIV SWAP1 POP PUSH1 0x1 DUP3 AND DUP1 PUSH3 0x352 JUMPI PUSH1 0x7F DUP3 AND SWAP2 POP JUMPDEST PUSH1 0x20 DUP3 LT DUP2 SUB PUSH3 0x368 JUMPI PUSH3 0x367 PUSH3 0x30A JUMP JUMPDEST JUMPDEST POP SWAP2 SWAP1 POP JUMP JUMPDEST PUSH1 0x0 DUP2 SWAP1 POP DUP2 PUSH1 0x0 MSTORE PUSH1 0x20 PUSH1 0x0 KECCAK256 SWAP1 POP SWAP2 SWAP1 POP JUMP JUMPDEST PUSH1 0x0 PUSH1 0x20 PUSH1 0x1F DUP4 ADD DIV SWAP1 POP SWAP2 SWAP1 POP JUMP JUMPDEST PUSH1 0x0 DUP3 DUP3 SHL SWAP1 POP SWAP3 SWAP2 POP POP JUMP JUMPDEST PUSH1 0x0 PUSH1 0x8 DUP4 MUL PUSH3 0x3D2 PUSH32 0xFFFFFFFFFFFFFFFFFFFFFFFFFFFFFFFFFFFFFFFFFFFFFFFFFFFFFFFFFFFFFFFF DUP3 PUSH3 0x393 JUMP JUMPDEST PUSH3 0x3DE DUP7 DUP4 PUSH3 0x393 JUMP JUMPDEST SWAP6 POP DUP1 NOT DUP5 AND SWAP4 POP DUP1 DUP7 AND DUP5 OR SWAP3 POP POP POP SWAP4 SWAP3 POP POP POP JUMP JUMPDEST PUSH1 0x0 DUP2 SWAP1 POP SWAP2 SWAP1 POP JUMP JUMPDEST PUSH1 0x0 PUSH3 0x421 PUSH3 0x41B PUSH3 0x415 DUP5 PUSH3 0x249 JUMP JUMPDEST PUSH3 0x3F6 JUMP JUMPDEST PUSH3 0x249 JUMP JUMPDEST SWAP1 POP SWAP2 SWAP1 POP JUMP JUMPDEST PUSH1 0x0 DUP2 SWAP1 POP SWAP2 SWAP1 POP JUMP JUMPDEST PUSH3 0x43D DUP4 PUSH3 0x400 JUMP JUMPDEST PUSH3 0x455 PUSH3 0x44C DUP3 PUSH3 0x428 JUMP JUMPDEST DUP5 DUP5 SLOAD PUSH3 0x3A0 JUMP JUMPDEST DUP3 SSTORE POP POP POP POP JUMP JUMPDEST PUSH1 0x0 SWAP1 JUMP JUMPDEST PUSH3 0x46C PUSH3 0x45D JUMP JUMPDEST PUSH3 0x479 DUP2 DUP5 DUP5 PUSH3 0x432 JUMP JUMPDEST POP POP POP JUMP JUMPDEST JUMPDEST DUP2 DUP2 LT ISZERO PUSH3 0x4A1 JUMPI PUSH3 0x495 PUSH1 0x0 DUP3 PUSH3 0x462 JUMP JUMPDEST PUSH1 0x1 DUP2 ADD SWAP1 POP PUSH3 0x47F JUMP JUMPDEST POP POP JUMP JUMPDEST PUSH1 0x1F DUP3 GT ISZERO PUSH3 0x4F0 JUMPI PUSH3 0x4BA DUP2 PUSH3 0x36E JUMP JUMPDEST PUSH3 0x4C5 DUP5 PUSH3 0x383 JUMP JUMPDEST DUP2 ADD PUSH1 0x20 DUP6 LT ISZERO PUSH3 0x4D5 JUMPI DUP2 SWAP1 POP JUMPDEST PUSH3 0x4ED PUSH3 0x4E4 DUP6 PUSH3 0x383 JUMP JUMPDEST DUP4 ADD DUP3 PUSH3 0x47E JUMP JUMPDEST POP POP JUMPDEST POP POP POP JUMP JUMPDEST PUSH1 0x0 DUP3 DUP3 SHR SWAP1 POP SWAP3 SWAP2 POP POP JUMP JUMPDEST PUSH1 0x0 PUSH3 0x515 PUSH1 0x0 NOT DUP5 PUSH1 0x8 MUL PUSH3 0x4F5 JUMP JUMPDEST NOT DUP1 DUP4 AND SWAP2 POP POP SWAP3 SWAP2 POP POP JUMP JUMPDEST PUSH1 0x0 PUSH3 0x530 DUP4 DUP4 PUSH3 0x502 JUMP JUMPDEST SWAP2 POP DUP3 PUSH1 0x2 MUL DUP3 OR SWAP1 POP SWAP3 SWAP2 POP POP JUMP JUMPDEST PUSH3 0x54B DUP3 PUSH3 0x2FF JUMP JUMPDEST PUSH8 0xFFFFFFFFFFFFFFFF DUP2 GT ISZERO PUSH3 0x567 JUMPI PUSH3 0x566 PUSH3 0xE5 JUMP JUMPDEST JUMPDEST PUSH3 0x573 DUP3 SLOAD PUSH3 0x339 JUMP JUMPDEST PUSH3 0x580 DUP3 DUP3 DUP6 PUSH3 0x4A5 JUMP JUMPDEST PUSH1 0x0 PUSH1 0x20 SWAP1 POP PUSH1 0x1F DUP4 GT PUSH1 0x1 DUP2 EQ PUSH3 0x5B8 JUMPI PUSH1 0x0 DUP5 ISZERO PUSH3 0x5A3 JUMPI DUP3 DUP8 ADD MLOAD SWAP1 POP JUMPDEST PUSH3 0x5AF DUP6 DUP3 PUSH3 0x522 JUMP JUMPDEST DUP7 SSTORE POP PUSH3 0x61F JUMP JUMPDEST PUSH1 0x1F NOT DUP5 AND PUSH3 0x5C8 DUP7 PUSH3 0x36E JUMP JUMPDEST PUSH1 0x0 JUMPDEST DUP3 DUP2 LT ISZERO PUSH3 0x5F2 JUMPI DUP5 DUP10 ADD MLOAD DUP3 SSTORE PUSH1 0x1 DUP3 ADD SWAP2 POP PUSH1 0x20 DUP6 ADD SWAP5 POP PUSH1 0x20 DUP2 ADD SWAP1 POP PUSH3 0x5CB JUMP JUMPDEST DUP7 DUP4 LT ISZERO PUSH3 0x612 JUMPI DUP5 DUP10 ADD MLOAD PUSH3 0x60E PUSH1 0x1F DUP10 AND DUP3 PUSH3 0x502 JUMP JUMPDEST DUP4 SSTORE POP JUMPDEST PUSH1 0x1 PUSH1 0x2 DUP9 MUL ADD DUP9 SSTORE POP POP POP JUMPDEST POP POP POP POP POP POP JUMP JUMPDEST PUSH32 0x4E487B7100000000000000000000000000000000000000000000000000000000 PUSH1 0x0 MSTORE PUSH1 0x11 PUSH1 0x4 MSTORE PUSH1 0x24 PUSH1 0x0 REVERT JUMPDEST PUSH1 0x0 PUSH3 0x663 DUP3 PUSH3 0x249 JUMP JUMPDEST SWAP2 POP PUSH3 0x670 DUP4 PUSH3 0x249 JUMP JUMPDEST SWAP3 POP DUP3 DUP3 ADD SWAP1 POP DUP1 DUP3 GT ISZERO PUSH3 0x68B JUMPI PUSH3 0x68A PUSH3 0x627 JUMP JUMPDEST JUMPDEST SWAP3 SWAP2 POP POP JUMP JUMPDEST PUSH2 0xAD8 DUP1 PUSH3 0x6A1 PUSH1 0x0 CODECOPY PUSH1 0x0 RETURN INVALID PUSH1 0x80 PUSH1 0x40 MSTORE PUSH1 0x4 CALLDATASIZE LT PUSH2 0x9C JUMPI PUSH1 0x0 CALLDATALOAD PUSH1 0xE0 SHR DUP1 PUSH4 0x481C6A75 GT PUSH2 0x64 JUMPI DUP1 PUSH4 0x481C6A75 EQ PUSH2 0x169 JUMPI DUP1 PUSH4 0xB2D5AE44 EQ PUSH2 0x194 JUMPI DUP1 PUSH4 0xD321FE29 EQ PUSH2 0x1AB JUMPI DUP1 PUSH4 0xD4B83992 EQ PUSH2 0x1C2 JUMPI DUP1 PUSH4 0xEBC33C51 EQ PUSH2 0x1ED JUMPI DUP1 PUSH4 0xF251FC8C EQ PUSH2 0x218 JUMPI PUSH2 0x9C JUMP JUMPDEST DUP1 PUSH4 0x6E99FEF EQ PUSH2 0xA1 JUMPI DUP1 PUSH4 0x12065FE0 EQ PUSH2 0xAB JUMPI DUP1 PUSH4 0x1A39D8EF EQ PUSH2 0xD6 JUMPI DUP1 PUSH4 0x1F6D4942 EQ PUSH2 0x101 JUMPI DUP1 PUSH4 0x29DCB0CF EQ PUSH2 0x13E JUMPI JUMPDEST PUSH1 0x0 DUP1 REVERT JUMPDEST PUSH2 0xA9 PUSH2 0x243 JUMP JUMPDEST STOP JUMPDEST CALLVALUE DUP1 ISZERO PUSH2 0xB7 JUMPI PUSH1 0x0 DUP1 REVERT JUMPDEST POP PUSH2 0xC0 PUSH2 0x39B JUMP JUMPDEST PUSH1 0x40 MLOAD PUSH2 0xCD SWAP2 SWAP1 PUSH2 0x6CF JUMP JUMPDEST PUSH1 0x40 MLOAD DUP1 SWAP2 SUB SWAP1 RETURN JUMPDEST CALLVALUE DUP1 ISZERO PUSH2 0xE2 JUMPI PUSH1 0x0 DUP1 REVERT JUMPDEST POP PUSH2 0xEB PUSH2 0x3A3 JUMP JUMPDEST PUSH1 0x40 MLOAD PUSH2 0xF8 SWAP2 SWAP1 PUSH2 0x6CF JUMP JUMPDEST PUSH1 0x40 MLOAD DUP1 SWAP2 SUB SWAP1 RETURN JUMPDEST CALLVALUE DUP1 ISZERO PUSH2 0x10D JUMPI PUSH1 0x0 DUP1 REVERT JUMPDEST POP PUSH2 0x128 PUSH1 0x4 DUP1 CALLDATASIZE SUB DUP2 ADD SWAP1 PUSH2 0x123 SWAP2 SWAP1 PUSH2 0x74D JUMP JUMPDEST PUSH2 0x3A9 JUMP JUMPDEST PUSH1 0x40 MLOAD PUSH2 0x135 SWAP2 SWAP1 PUSH2 0x6CF JUMP JUMPDEST PUSH1 0x40 MLOAD DUP1 SWAP2 SUB SWAP1 RETURN JUMPDEST CALLVALUE DUP1 ISZERO PUSH2 0x14A JUMPI PUSH1 0x0 DUP1 REVERT JUMPDEST POP PUSH2 0x153 PUSH2 0x3C1 JUMP JUMPDEST PUSH1 0x40 MLOAD PUSH2 0x160 SWAP2 SWAP1 PUSH2 0x6CF JUMP JUMPDEST PUSH1 0x40 MLOAD DUP1 SWAP2 SUB SWAP1 RETURN JUMPDEST CALLVALUE DUP1 ISZERO PUSH2 0x175 JUMPI PUSH1 0x0 DUP1 REVERT JUMPDEST POP PUSH2 0x17E PUSH2 0x3C7 JUMP JUMPDEST PUSH1 0x40 MLOAD PUSH2 0x18B SWAP2 SWAP1 PUSH2 0x789 JUMP JUMPDEST PUSH1 0x40 MLOAD DUP1 SWAP2 SUB SWAP1 RETURN JUMPDEST CALLVALUE DUP1 ISZERO PUSH2 0x1A0 JUMPI PUSH1 0x0 DUP1 REVERT JUMPDEST POP PUSH2 0x1A9 PUSH2 0x3ED JUMP JUMPDEST STOP JUMPDEST CALLVALUE DUP1 ISZERO PUSH2 0x1B7 JUMPI PUSH1 0x0 DUP1 REVERT JUMPDEST POP PUSH2 0x1C0 PUSH2 0x55C JUMP JUMPDEST STOP JUMPDEST CALLVALUE DUP1 ISZERO PUSH2 0x1CE JUMPI PUSH1 0x0 DUP1 REVERT JUMPDEST POP PUSH2 0x1D7 PUSH2 0x6A4 JUMP JUMPDEST PUSH1 0x40 MLOAD PUSH2 0x1E4 SWAP2 SWAP1 PUSH2 0x6CF JUMP JUMPDEST PUSH1 0x40 MLOAD DUP1 SWAP2 SUB SWAP1 RETURN JUMPDEST CALLVALUE DUP1 ISZERO PUSH2 0x1F9 JUMPI PUSH1 0x0 DUP1 REVERT JUMPDEST POP PUSH2 0x202 PUSH2 0x6AA JUMP JUMPDEST PUSH1 0x40 MLOAD PUSH2 0x20F SWAP2 SWAP1 PUSH2 0x6CF JUMP JUMPDEST PUSH1 0x40 MLOAD DUP1 SWAP2 SUB SWAP1 RETURN JUMPDEST CALLVALUE DUP1 ISZERO PUSH2 0x224 JUMPI PUSH1 0x0 DUP1 REVERT JUMPDEST POP PUSH2 0x22D PUSH2 0x6B0 JUMP JUMPDEST PUSH1 0x40 MLOAD PUSH2 0x23A SWAP2 SWAP1 PUSH2 0x6CF JUMP JUMPDEST PUSH1 0x40 MLOAD DUP1 SWAP2 SUB SWAP1 RETURN JUMPDEST PUSH1 0x7 SLOAD TIMESTAMP LT PUSH2 0x287 JUMPI PUSH1 0x40 MLOAD PUSH32 0x8C379A000000000000000000000000000000000000000000000000000000000 DUP2 MSTORE PUSH1 0x4 ADD PUSH2 0x27E SWAP1 PUSH2 0x801 JUMP JUMPDEST PUSH1 0x40 MLOAD DUP1 SWAP2 SUB SWAP1 REVERT JUMPDEST PUSH1 0x3 SLOAD CALLVALUE LT ISZERO PUSH2 0x2CC JUMPI PUSH1 0x40 MLOAD PUSH32 0x8C379A000000000000000000000000000000000000000000000000000000000 DUP2 MSTORE PUSH1 0x4 ADD PUSH2 0x2C3 SWAP1 PUSH2 0x893 JUMP JUMPDEST PUSH1 0x40 MLOAD DUP1 SWAP2 SUB SWAP1 REVERT JUMPDEST PUSH1 0x0 DUP1 PUSH1 0x0 CALLER PUSH20 0xFFFFFFFFFFFFFFFFFFFFFFFFFFFFFFFFFFFFFFFF AND PUSH20 0xFFFFFFFFFFFFFFFFFFFFFFFFFFFFFFFFFFFFFFFF AND DUP2 MSTORE PUSH1 0x20 ADD SWAP1 DUP2 MSTORE PUSH1 0x20 ADD PUSH1 0x0 KECCAK256 SLOAD SUB PUSH2 0x32B JUMPI PUSH1 0x6 PUSH1 0x0 DUP2 SLOAD DUP1 SWAP3 SWAP2 SWAP1 PUSH2 0x325 SWAP1 PUSH2 0x8E2 JUMP JUMPDEST SWAP2 SWAP1 POP SSTORE POP JUMPDEST CALLVALUE PUSH1 0x0 DUP1 CALLER PUSH20 0xFFFFFFFFFFFFFFFFFFFFFFFFFFFFFFFFFFFFFFFF AND PUSH20 0xFFFFFFFFFFFFFFFFFFFFFFFFFFFFFFFFFFFFFFFF AND DUP2 MSTORE PUSH1 0x20 ADD SWAP1 DUP2 MSTORE PUSH1 0x20 ADD PUSH1 0x0 KECCAK256 PUSH1 0x0 DUP3 DUP3 SLOAD PUSH2 0x379 SWAP2 SWAP1 PUSH2 0x92A JUMP JUMPDEST SWAP3 POP POP DUP2 SWAP1 SSTORE POP CALLVALUE PUSH1 0x5 PUSH1 0x0 DUP3 DUP3 SLOAD PUSH2 0x392 SWAP2 SWAP1 PUSH2 0x92A JUMP JUMPDEST SWAP3 POP POP DUP2 SWAP1 SSTORE POP JUMP JUMPDEST PUSH1 0x0 SELFBALANCE SWAP1 POP SWAP1 JUMP JUMPDEST PUSH1 0x5 SLOAD DUP2 JUMP JUMPDEST PUSH1 0x0 PUSH1 0x20 MSTORE DUP1 PUSH1 0x0 MSTORE PUSH1 0x40 PUSH1 0x0 KECCAK256 PUSH1 0x0 SWAP2 POP SWAP1 POP SLOAD DUP2 JUMP JUMPDEST PUSH1 0x7 SLOAD DUP2 JUMP JUMPDEST PUSH1 0x1 PUSH1 0x0 SWAP1 SLOAD SWAP1 PUSH2 0x100 EXP SWAP1 DIV PUSH20 0xFFFFFFFFFFFFFFFFFFFFFFFFFFFFFFFFFFFFFFFF AND DUP2 JUMP JUMPDEST PUSH1 0x7 SLOAD TIMESTAMP GT DUP1 ISZERO PUSH2 0x401 JUMPI POP PUSH1 0x4 SLOAD PUSH1 0x5 SLOAD LT JUMPDEST PUSH2 0x440 JUMPI PUSH1 0x40 MLOAD PUSH32 0x8C379A000000000000000000000000000000000000000000000000000000000 DUP2 MSTORE PUSH1 0x4 ADD PUSH2 0x437 SWAP1 PUSH2 0x9AA JUMP JUMPDEST PUSH1 0x40 MLOAD DUP1 SWAP2 SUB SWAP1 REVERT JUMPDEST PUSH1 0x0 DUP1 PUSH1 0x0 CALLER PUSH20 0xFFFFFFFFFFFFFFFFFFFFFFFFFFFFFFFFFFFFFFFF AND PUSH20 0xFFFFFFFFFFFFFFFFFFFFFFFFFFFFFFFFFFFFFFFF AND DUP2 MSTORE PUSH1 0x20 ADD SWAP1 DUP2 MSTORE PUSH1 0x20 ADD PUSH1 0x0 KECCAK256 SLOAD GT PUSH2 0x48B JUMPI PUSH1 0x0 DUP1 REVERT JUMPDEST PUSH1 0x0 CALLER SWAP1 POP DUP1 PUSH20 0xFFFFFFFFFFFFFFFFFFFFFFFFFFFFFFFFFFFFFFFF AND PUSH2 0x8FC PUSH1 0x0 DUP1 CALLER PUSH20 0xFFFFFFFFFFFFFFFFFFFFFFFFFFFFFFFFFFFFFFFF AND PUSH20 0xFFFFFFFFFFFFFFFFFFFFFFFFFFFFFFFFFFFFFFFF AND DUP2 MSTORE PUSH1 0x20 ADD SWAP1 DUP2 MSTORE PUSH1 0x20 ADD PUSH1 0x0 KECCAK256 SLOAD SWAP1 DUP2 ISZERO MUL SWAP1 PUSH1 0x40 MLOAD PUSH1 0x0 PUSH1 0x40 MLOAD DUP1 DUP4 SUB DUP2 DUP6 DUP9 DUP9 CALL SWAP4 POP POP POP POP ISZERO DUP1 ISZERO PUSH2 0x514 JUMPI RETURNDATASIZE PUSH1 0x0 DUP1 RETURNDATACOPY RETURNDATASIZE PUSH1 0x0 REVERT JUMPDEST POP PUSH1 0x0 DUP1 PUSH1 0x0 CALLER PUSH20 0xFFFFFFFFFFFFFFFFFFFFFFFFFFFFFFFFFFFFFFFF AND PUSH20 0xFFFFFFFFFFFFFFFFFFFFFFFFFFFFFFFFFFFFFFFF AND DUP2 MSTORE PUSH1 0x20 ADD SWAP1 DUP2 MSTORE PUSH1 0x20 ADD PUSH1 0x0 KECCAK256 DUP2 SWAP1 SSTORE POP POP JUMP JUMPDEST PUSH1 0x1 PUSH1 0x0 SWAP1 SLOAD SWAP1 PUSH2 0x100 EXP SWAP1 DIV PUSH20 0xFFFFFFFFFFFFFFFFFFFFFFFFFFFFFFFFFFFFFFFF AND PUSH20 0xFFFFFFFFFFFFFFFFFFFFFFFFFFFFFFFFFFFFFFFF AND CALLER PUSH20 0xFFFFFFFFFFFFFFFFFFFFFFFFFFFFFFFFFFFFFFFF AND EQ PUSH2 0x5EC JUMPI PUSH1 0x40 MLOAD PUSH32 0x8C379A000000000000000000000000000000000000000000000000000000000 DUP2 MSTORE PUSH1 0x4 ADD PUSH2 0x5E3 SWAP1 PUSH2 0xA16 JUMP JUMPDEST PUSH1 0x40 MLOAD DUP1 SWAP2 SUB SWAP1 REVERT JUMPDEST PUSH1 0x4 SLOAD PUSH1 0x5 SLOAD LT ISZERO PUSH2 0x633 JUMPI PUSH1 0x40 MLOAD PUSH32 0x8C379A000000000000000000000000000000000000000000000000000000000 DUP2 MSTORE PUSH1 0x4 ADD PUSH2 0x62A SWAP1 PUSH2 0xA82 JUMP JUMPDEST PUSH1 0x40 MLOAD DUP1 SWAP2 SUB SWAP1 REVERT JUMPDEST PUSH1 0x0 PUSH1 0x1 PUSH1 0x0 SWAP1 SLOAD SWAP1 PUSH2 0x100 EXP SWAP1 DIV PUSH20 0xFFFFFFFFFFFFFFFFFFFFFFFFFFFFFFFFFFFFFFFF AND SWAP1 POP DUP1 PUSH20 0xFFFFFFFFFFFFFFFFFFFFFFFFFFFFFFFFFFFFFFFF AND PUSH2 0x8FC SELFBALANCE SWAP1 DUP2 ISZERO MUL SWAP1 PUSH1 0x40 MLOAD PUSH1 0x0 PUSH1 0x40 MLOAD DUP1 DUP4 SUB DUP2 DUP6 DUP9 DUP9 CALL SWAP4 POP POP POP POP ISZERO DUP1 ISZERO PUSH2 0x6A0 JUMPI RETURNDATASIZE PUSH1 0x0 DUP1 RETURNDATACOPY RETURNDATASIZE PUSH1 0x0 REVERT JUMPDEST POP POP JUMP JUMPDEST PUSH1 0x4 SLOAD DUP2 JUMP JUMPDEST PUSH1 0x3 SLOAD DUP2 JUMP JUMPDEST PUSH1 0x6 SLOAD DUP2 JUMP JUMPDEST PUSH1 0x0 DUP2 SWAP1 POP SWAP2 SWAP1 POP JUMP JUMPDEST PUSH2 0x6C9 DUP2 PUSH2 0x6B6 JUMP JUMPDEST DUP3 MSTORE POP POP JUMP JUMPDEST PUSH1 0x0 PUSH1 0x20 DUP3 ADD SWAP1 POP PUSH2 0x6E4 PUSH1 0x0 DUP4 ADD DUP5 PUSH2 0x6C0 JUMP JUMPDEST SWAP3 SWAP2 POP POP JUMP JUMPDEST PUSH1 0x0 DUP1 REVERT JUMPDEST PUSH1 0x0 PUSH20 0xFFFFFFFFFFFFFFFFFFFFFFFFFFFFFFFFFFFFFFFF DUP3 AND SWAP1 POP SWAP2 SWAP1 POP JUMP JUMPDEST PUSH1 0x0 PUSH2 0x71A DUP3 PUSH2 0x6EF JUMP JUMPDEST SWAP1 POP SWAP2 SWAP1 POP JUMP JUMPDEST PUSH2 0x72A DUP2 PUSH2 0x70F JUMP JUMPDEST DUP2 EQ PUSH2 0x735 JUMPI PUSH1 0x0 DUP1 REVERT JUMPDEST POP JUMP JUMPDEST PUSH1 0x0 DUP2 CALLDATALOAD SWAP1 POP PUSH2 0x747 DUP2 PUSH2 0x721 JUMP JUMPDEST SWAP3 SWAP2 POP POP JUMP JUMPDEST PUSH1 0x0 PUSH1 0x20 DUP3 DUP5 SUB SLT ISZERO PUSH2 0x763 JUMPI PUSH2 0x762 PUSH2 0x6EA JUMP JUMPDEST JUMPDEST PUSH1 0x0 PUSH2 0x771 DUP5 DUP3 DUP6 ADD PUSH2 0x738 JUMP JUMPDEST SWAP2 POP POP SWAP3 SWAP2 POP POP JUMP JUMPDEST PUSH2 0x783 DUP2 PUSH2 0x70F JUMP JUMPDEST DUP3 MSTORE POP POP JUMP JUMPDEST PUSH1 0x0 PUSH1 0x20 DUP3 ADD SWAP1 POP PUSH2 0x79E PUSH1 0x0 DUP4 ADD DUP5 PUSH2 0x77A JUMP JUMPDEST SWAP3 SWAP2 POP POP JUMP JUMPDEST PUSH1 0x0 DUP3 DUP3 MSTORE PUSH1 0x20 DUP3 ADD SWAP1 POP SWAP3 SWAP2 POP POP JUMP JUMPDEST PUSH32 0x5065746974696F6E20646F65736E277420657869737420616E796D6F72650000 PUSH1 0x0 DUP3 ADD MSTORE POP JUMP JUMPDEST PUSH1 0x0 PUSH2 0x7EB PUSH1 0x1E DUP4 PUSH2 0x7A4 JUMP JUMPDEST SWAP2 POP PUSH2 0x7F6 DUP3 PUSH2 0x7B5 JUMP JUMPDEST PUSH1 0x20 DUP3 ADD SWAP1 POP SWAP2 SWAP1 POP JUMP JUMPDEST PUSH1 0x0 PUSH1 0x20 DUP3 ADD SWAP1 POP DUP2 DUP2 SUB PUSH1 0x0 DUP4 ADD MSTORE PUSH2 0x81A DUP2 PUSH2 0x7DE JUMP JUMPDEST SWAP1 POP SWAP2 SWAP1 POP JUMP JUMPDEST PUSH32 0x3130302077656920697320746865206D696E696D756D20646F6E6174696F6E20 PUSH1 0x0 DUP3 ADD MSTORE PUSH32 0x616D6F756E740000000000000000000000000000000000000000000000000000 PUSH1 0x20 DUP3 ADD MSTORE POP JUMP JUMPDEST PUSH1 0x0 PUSH2 0x87D PUSH1 0x26 DUP4 PUSH2 0x7A4 JUMP JUMPDEST SWAP2 POP PUSH2 0x888 DUP3 PUSH2 0x821 JUMP JUMPDEST PUSH1 0x40 DUP3 ADD SWAP1 POP SWAP2 SWAP1 POP JUMP JUMPDEST PUSH1 0x0 PUSH1 0x20 DUP3 ADD SWAP1 POP DUP2 DUP2 SUB PUSH1 0x0 DUP4 ADD MSTORE PUSH2 0x8AC DUP2 PUSH2 0x870 JUMP JUMPDEST SWAP1 POP SWAP2 SWAP1 POP JUMP JUMPDEST PUSH32 0x4E487B7100000000000000000000000000000000000000000000000000000000 PUSH1 0x0 MSTORE PUSH1 0x11 PUSH1 0x4 MSTORE PUSH1 0x24 PUSH1 0x0 REVERT JUMPDEST PUSH1 0x0 PUSH2 0x8ED DUP3 PUSH2 0x6B6 JUMP JUMPDEST SWAP2 POP PUSH32 0xFFFFFFFFFFFFFFFFFFFFFFFFFFFFFFFFFFFFFFFFFFFFFFFFFFFFFFFFFFFFFFFF DUP3 SUB PUSH2 0x91F JUMPI PUSH2 0x91E PUSH2 0x8B3 JUMP JUMPDEST JUMPDEST PUSH1 0x1 DUP3 ADD SWAP1 POP SWAP2 SWAP1 POP JUMP JUMPDEST PUSH1 0x0 PUSH2 0x935 DUP3 PUSH2 0x6B6 JUMP JUMPDEST SWAP2 POP PUSH2 0x940 DUP4 PUSH2 0x6B6 JUMP JUMPDEST SWAP3 POP DUP3 DUP3 ADD SWAP1 POP DUP1 DUP3 GT ISZERO PUSH2 0x958 JUMPI PUSH2 0x957 PUSH2 0x8B3 JUMP JUMPDEST JUMPDEST SWAP3 SWAP2 POP POP JUMP JUMPDEST PUSH32 0x526566756E64206973206E6F7420706F737369626C65207269676874206E6F77 PUSH1 0x0 DUP3 ADD MSTORE POP JUMP JUMPDEST PUSH1 0x0 PUSH2 0x994 PUSH1 0x20 DUP4 PUSH2 0x7A4 JUMP JUMPDEST SWAP2 POP PUSH2 0x99F DUP3 PUSH2 0x95E JUMP JUMPDEST PUSH1 0x20 DUP3 ADD SWAP1 POP SWAP2 SWAP1 POP JUMP JUMPDEST PUSH1 0x0 PUSH1 0x20 DUP3 ADD SWAP1 POP DUP2 DUP2 SUB PUSH1 0x0 DUP4 ADD MSTORE PUSH2 0x9C3 DUP2 PUSH2 0x987 JUMP JUMPDEST SWAP1 POP SWAP2 SWAP1 POP JUMP JUMPDEST PUSH32 0x4F6E6C792061646D696E2063616E206163636573732074686973000000000000 PUSH1 0x0 DUP3 ADD MSTORE POP JUMP JUMPDEST PUSH1 0x0 PUSH2 0xA00 PUSH1 0x1A DUP4 PUSH2 0x7A4 JUMP JUMPDEST SWAP2 POP PUSH2 0xA0B DUP3 PUSH2 0x9CA JUMP JUMPDEST PUSH1 0x20 DUP3 ADD SWAP1 POP SWAP2 SWAP1 POP JUMP JUMPDEST PUSH1 0x0 PUSH1 0x20 DUP3 ADD SWAP1 POP DUP2 DUP2 SUB PUSH1 0x0 DUP4 ADD MSTORE PUSH2 0xA2F DUP2 PUSH2 0x9F3 JUMP JUMPDEST SWAP1 POP SWAP2 SWAP1 POP JUMP JUMPDEST PUSH32 0x54617267657420616D6F756E74206469646E2774207265616368000000000000 PUSH1 0x0 DUP3 ADD MSTORE POP JUMP JUMPDEST PUSH1 0x0 PUSH2 0xA6C PUSH1 0x1A DUP4 PUSH2 0x7A4 JUMP JUMPDEST SWAP2 POP PUSH2 0xA77 DUP3 PUSH2 0xA36 JUMP JUMPDEST PUSH1 0x20 DUP3 ADD SWAP1 POP SWAP2 SWAP1 POP JUMP JUMPDEST PUSH1 0x0 PUSH1 0x20 DUP3 ADD SWAP1 POP DUP2 DUP2 SUB PUSH1 0x0 DUP4 ADD MSTORE PUSH2 0xA9B DUP2 PUSH2 0xA5F JUMP JUMPDEST SWAP1 POP SWAP2 SWAP1 POP JUMP INVALID LOG2 PUSH5 0x6970667358 0x22 SLT KECCAK256 MSTORE8 0xBD 0xED 0xD9 POP 0xEE 0xC7 BYTE COINBASE GASPRICE 0xA9 0xC6 DUP16 PUSH23 0xA273539F81EB83C8974514C86A618FAD285D64736F6C63 NUMBER STOP ADDMOD SLT STOP CALLER "
				},
				"gasEstimates": {
					"creation": {
						"codeDepositCost": "555200",
						"executionCost": "infinite",
						"totalCost": "infinite"
					},
					"external": {
						"contributors(address)": "2881",
						"deadline()": "2518",
						"getAmount()": "infinite",
						"getBalance()": "362",
						"getRefund()": "infinite",
						"manager()": "2514",
						"minContrib()": "2517",
						"sendEth()": "infinite",
						"target()": "2495",
						"totalAmount()": "2474",
						"totalContributors()": "2539"
					}
				},
				"methodIdentifiers": {
					"contributors(address)": "1f6d4942",
					"deadline()": "29dcb0cf",
					"getAmount()": "d321fe29",
					"getBalance()": "12065fe0",
					"getRefund()": "b2d5ae44",
					"manager()": "481c6a75",
					"minContrib()": "ebc33c51",
					"sendEth()": "06e99fef",
					"target()": "d4b83992",
					"totalAmount()": "1a39d8ef",
					"totalContributors()": "f251fc8c"
				}
			},
			"storageLayout": {
				"storage": [
					{
						"astId": 5,
						"contract": "main.sol:FundRiser",
						"label": "contributors",
						"offset": 0,
						"slot": "0",
						"type": "t_mapping(t_address,t_uint256)"
					},
					{
						"astId": 7,
						"contract": "main.sol:FundRiser",
						"label": "manager",
						"offset": 0,
						"slot": "1",
						"type": "t_address"
					},
					{
						"astId": 9,
						"contract": "main.sol:FundRiser",
						"label": "reqName",
						"offset": 0,
						"slot": "2",
						"type": "t_string_storage"
					},
					{
						"astId": 11,
						"contract": "main.sol:FundRiser",
						"label": "minContrib",
						"offset": 0,
						"slot": "3",
						"type": "t_uint256"
					},
					{
						"astId": 13,
						"contract": "main.sol:FundRiser",
						"label": "target",
						"offset": 0,
						"slot": "4",
						"type": "t_uint256"
					},
					{
						"astId": 15,
						"contract": "main.sol:FundRiser",
						"label": "totalAmount",
						"offset": 0,
						"slot": "5",
						"type": "t_uint256"
					},
					{
						"astId": 17,
						"contract": "main.sol:FundRiser",
						"label": "totalContributors",
						"offset": 0,
						"slot": "6",
						"type": "t_uint256"
					},
					{
						"astId": 19,
						"contract": "main.sol:FundRiser",
						"label": "deadline",
						"offset": 0,
						"slot": "7",
						"type": "t_uint256"
					}
				],
				"types": {
					"t_address": {
						"encoding": "inplace",
						"label": "address",
						"numberOfBytes": "20"
					},
					"t_mapping(t_address,t_uint256)": {
						"encoding": "mapping",
						"key": "t_address",
						"label": "mapping(address => uint256)",
						"numberOfBytes": "32",
						"value": "t_uint256"
					},
					"t_string_storage": {
						"encoding": "bytes",
						"label": "string",
						"numberOfBytes": "32"
					},
					"t_uint256": {
						"encoding": "inplace",
						"label": "uint256",
						"numberOfBytes": "32"
					}
				}
			},
			"userdoc": {
				"kind": "user",
				"methods": {},
				"version": 1
			}
		}
	}
}